{
  "address": "0x5FbDB2315678afecb367f032d93F642f64180aa3",
  "_format": "hh-sol-artifact-1",
  "contractName": "NFTMarketplace",
  "sourceName": "contracts/NFTMarketplace.sol",
  "abi": [
    {
      "inputs": [],
      "stateMutability": "nonpayable",
      "type": "constructor"
    },
    {
      "anonymous": false,
      "inputs": [
        {
          "indexed": true,
          "internalType": "address",
          "name": "owner",
          "type": "address"
        },
        {
          "indexed": true,
          "internalType": "address",
          "name": "approved",
          "type": "address"
        },
        {
          "indexed": true,
          "internalType": "uint256",
          "name": "tokenId",
          "type": "uint256"
        }
      ],
      "name": "Approval",
      "type": "event"
    },
    {
      "anonymous": false,
      "inputs": [
        {
          "indexed": true,
          "internalType": "address",
          "name": "owner",
          "type": "address"
        },
        {
          "indexed": true,
          "internalType": "address",
          "name": "operator",
          "type": "address"
        },
        {
          "indexed": false,
          "internalType": "bool",
          "name": "approved",
          "type": "bool"
        }
      ],
      "name": "ApprovalForAll",
      "type": "event"
    },
    {
      "anonymous": false,
      "inputs": [
        {
          "indexed": false,
          "internalType": "uint256",
          "name": "_fromTokenId",
          "type": "uint256"
        },
        {
          "indexed": false,
          "internalType": "uint256",
          "name": "_toTokenId",
          "type": "uint256"
        }
      ],
      "name": "BatchMetadataUpdate",
      "type": "event"
    },
    {
      "anonymous": false,
      "inputs": [
        {
          "indexed": false,
          "internalType": "uint256",
          "name": "_tokenId",
          "type": "uint256"
        }
      ],
      "name": "MetadataUpdate",
      "type": "event"
    },
    {
      "anonymous": false,
      "inputs": [
        {
          "indexed": true,
          "internalType": "uint256",
          "name": "tokenId",
          "type": "uint256"
        },
        {
          "indexed": false,
          "internalType": "address",
          "name": "owner",
          "type": "address"
        },
        {
          "indexed": false,
          "internalType": "address",
          "name": "seller",
          "type": "address"
        },
        {
          "indexed": false,
          "internalType": "uint256",
          "name": "price",
          "type": "uint256"
        },
        {
          "indexed": false,
          "internalType": "string",
          "name": "name",
          "type": "string"
        },
        {
          "indexed": false,
          "internalType": "bool",
          "name": "currentlyListed",
          "type": "bool"
        }
      ],
      "name": "TokenListedSuccess",
      "type": "event"
    },
    {
      "anonymous": false,
      "inputs": [
        {
          "indexed": true,
          "internalType": "uint256",
          "name": "tokenId",
          "type": "uint256"
        },
        {
          "indexed": false,
          "internalType": "address",
          "name": "owner",
          "type": "address"
        },
        {
          "indexed": false,
          "internalType": "string",
          "name": "name",
          "type": "string"
        }
      ],
      "name": "TokenMintSuccess",
      "type": "event"
    },
    {
      "anonymous": false,
      "inputs": [
        {
          "indexed": true,
          "internalType": "uint256",
          "name": "tokenId",
          "type": "uint256"
        },
        {
          "indexed": false,
          "internalType": "address",
          "name": "owner",
          "type": "address"
        },
        {
          "indexed": false,
          "internalType": "address",
          "name": "seller",
          "type": "address"
        },
        {
          "indexed": false,
          "internalType": "uint256",
          "name": "price",
          "type": "uint256"
        },
        {
          "indexed": false,
          "internalType": "string",
          "name": "name",
          "type": "string"
        },
        {
          "indexed": false,
          "internalType": "bool",
          "name": "currentlyListed",
          "type": "bool"
        }
      ],
      "name": "TokenSoldSuccess",
      "type": "event"
    },
    {
      "anonymous": false,
      "inputs": [
        {
          "indexed": true,
          "internalType": "address",
          "name": "from",
          "type": "address"
        },
        {
          "indexed": true,
          "internalType": "address",
          "name": "to",
          "type": "address"
        },
        {
          "indexed": true,
          "internalType": "uint256",
          "name": "tokenId",
          "type": "uint256"
        }
      ],
      "name": "Transfer",
      "type": "event"
    },
    {
      "inputs": [
        {
          "internalType": "address",
          "name": "to",
          "type": "address"
        },
        {
          "internalType": "uint256",
          "name": "tokenId",
          "type": "uint256"
        }
      ],
      "name": "approve",
      "outputs": [],
      "stateMutability": "nonpayable",
      "type": "function"
    },
    {
      "inputs": [
        {
          "internalType": "address",
          "name": "owner",
          "type": "address"
        }
      ],
      "name": "balanceOf",
      "outputs": [
        {
          "internalType": "uint256",
          "name": "",
          "type": "uint256"
        }
      ],
      "stateMutability": "view",
      "type": "function"
    },
    {
      "inputs": [
        {
          "internalType": "string",
          "name": "tokenURI",
          "type": "string"
        },
        {
          "internalType": "string",
          "name": "name",
          "type": "string"
        }
      ],
      "name": "createToken",
      "outputs": [
        {
          "internalType": "uint256",
          "name": "",
          "type": "uint256"
        }
      ],
      "stateMutability": "payable",
      "type": "function"
    },
    {
      "inputs": [
        {
          "internalType": "uint256",
          "name": "tokenId",
          "type": "uint256"
        }
      ],
      "name": "executeSale",
      "outputs": [],
      "stateMutability": "payable",
      "type": "function"
    },
    {
      "inputs": [],
      "name": "getAllNFTs",
      "outputs": [
        {
          "components": [
            {
              "internalType": "uint256",
              "name": "tokenId",
              "type": "uint256"
            },
            {
              "internalType": "address payable",
              "name": "owner",
              "type": "address"
            },
            {
              "internalType": "address payable",
              "name": "seller",
              "type": "address"
            },
            {
              "internalType": "uint256",
              "name": "price",
              "type": "uint256"
            },
            {
              "internalType": "bool",
              "name": "currentlyListed",
              "type": "bool"
            }
          ],
          "internalType": "struct NFTMarketplace.ListedToken[]",
          "name": "",
          "type": "tuple[]"
        }
      ],
      "stateMutability": "view",
      "type": "function"
    },
    {
      "inputs": [
        {
          "internalType": "uint256",
          "name": "tokenId",
          "type": "uint256"
        }
      ],
      "name": "getApproved",
      "outputs": [
        {
          "internalType": "address",
          "name": "",
          "type": "address"
        }
      ],
      "stateMutability": "view",
      "type": "function"
    },
    {
      "inputs": [],
      "name": "getCurrentToken",
      "outputs": [
        {
          "internalType": "uint256",
          "name": "",
          "type": "uint256"
        }
      ],
      "stateMutability": "view",
      "type": "function"
    },
    {
      "inputs": [],
      "name": "getLatestIdToListedToken",
      "outputs": [
        {
          "components": [
            {
              "internalType": "uint256",
              "name": "tokenId",
              "type": "uint256"
            },
            {
              "internalType": "address payable",
              "name": "owner",
              "type": "address"
            },
            {
              "internalType": "address payable",
              "name": "seller",
              "type": "address"
            },
            {
              "internalType": "uint256",
              "name": "price",
              "type": "uint256"
            },
            {
              "internalType": "bool",
              "name": "currentlyListed",
              "type": "bool"
            }
          ],
          "internalType": "struct NFTMarketplace.ListedToken",
          "name": "",
          "type": "tuple"
        }
      ],
      "stateMutability": "view",
      "type": "function"
    },
    {
      "inputs": [],
      "name": "getListPrice",
      "outputs": [
        {
          "internalType": "uint256",
          "name": "",
          "type": "uint256"
        }
      ],
      "stateMutability": "view",
      "type": "function"
    },
    {
      "inputs": [
        {
          "internalType": "uint256",
          "name": "tokenId",
          "type": "uint256"
        }
      ],
      "name": "getListedTokenForId",
      "outputs": [
        {
          "components": [
            {
              "internalType": "uint256",
              "name": "tokenId",
              "type": "uint256"
            },
            {
              "internalType": "address payable",
              "name": "owner",
              "type": "address"
            },
            {
              "internalType": "address payable",
              "name": "seller",
              "type": "address"
            },
            {
              "internalType": "uint256",
              "name": "price",
              "type": "uint256"
            },
            {
              "internalType": "bool",
              "name": "currentlyListed",
              "type": "bool"
            }
          ],
          "internalType": "struct NFTMarketplace.ListedToken",
          "name": "",
          "type": "tuple"
        }
      ],
      "stateMutability": "view",
      "type": "function"
    },
    {
      "inputs": [],
      "name": "getMyNFTs",
      "outputs": [
        {
          "components": [
            {
              "internalType": "uint256",
              "name": "tokenId",
              "type": "uint256"
            },
            {
              "internalType": "address payable",
              "name": "owner",
              "type": "address"
            },
            {
              "internalType": "address payable",
              "name": "seller",
              "type": "address"
            },
            {
              "internalType": "uint256",
              "name": "price",
              "type": "uint256"
            },
            {
              "internalType": "bool",
              "name": "currentlyListed",
              "type": "bool"
            }
          ],
          "internalType": "struct NFTMarketplace.ListedToken[]",
          "name": "",
          "type": "tuple[]"
        }
      ],
      "stateMutability": "view",
      "type": "function"
    },
    {
      "inputs": [
        {
          "internalType": "address",
          "name": "owner",
          "type": "address"
        },
        {
          "internalType": "address",
          "name": "operator",
          "type": "address"
        }
      ],
      "name": "isApprovedForAll",
      "outputs": [
        {
          "internalType": "bool",
          "name": "",
          "type": "bool"
        }
      ],
      "stateMutability": "view",
      "type": "function"
    },
    {
      "inputs": [],
      "name": "name",
      "outputs": [
        {
          "internalType": "string",
          "name": "",
          "type": "string"
        }
      ],
      "stateMutability": "view",
      "type": "function"
    },
    {
      "inputs": [
        {
          "internalType": "uint256",
          "name": "tokenId",
          "type": "uint256"
        }
      ],
      "name": "ownerOf",
      "outputs": [
        {
          "internalType": "address",
          "name": "",
          "type": "address"
        }
      ],
      "stateMutability": "view",
      "type": "function"
    },
    {
      "inputs": [
        {
          "internalType": "address",
          "name": "from",
          "type": "address"
        },
        {
          "internalType": "address",
          "name": "to",
          "type": "address"
        },
        {
          "internalType": "uint256",
          "name": "tokenId",
          "type": "uint256"
        }
      ],
      "name": "safeTransferFrom",
      "outputs": [],
      "stateMutability": "nonpayable",
      "type": "function"
    },
    {
      "inputs": [
        {
          "internalType": "address",
          "name": "from",
          "type": "address"
        },
        {
          "internalType": "address",
          "name": "to",
          "type": "address"
        },
        {
          "internalType": "uint256",
          "name": "tokenId",
          "type": "uint256"
        },
        {
          "internalType": "bytes",
          "name": "data",
          "type": "bytes"
        }
      ],
      "name": "safeTransferFrom",
      "outputs": [],
      "stateMutability": "nonpayable",
      "type": "function"
    },
    {
      "inputs": [
        {
          "internalType": "address",
          "name": "operator",
          "type": "address"
        },
        {
          "internalType": "bool",
          "name": "approved",
          "type": "bool"
        }
      ],
      "name": "setApprovalForAll",
      "outputs": [],
      "stateMutability": "nonpayable",
      "type": "function"
    },
    {
      "inputs": [
        {
          "internalType": "bytes4",
          "name": "interfaceId",
          "type": "bytes4"
        }
      ],
      "name": "supportsInterface",
      "outputs": [
        {
          "internalType": "bool",
          "name": "",
          "type": "bool"
        }
      ],
      "stateMutability": "view",
      "type": "function"
    },
    {
      "inputs": [],
      "name": "symbol",
      "outputs": [
        {
          "internalType": "string",
          "name": "",
          "type": "string"
        }
      ],
      "stateMutability": "view",
      "type": "function"
    },
    {
      "inputs": [
        {
          "internalType": "uint256",
          "name": "tokenId",
          "type": "uint256"
        }
      ],
      "name": "tokenURI",
      "outputs": [
        {
          "internalType": "string",
          "name": "",
          "type": "string"
        }
      ],
      "stateMutability": "view",
      "type": "function"
    },
    {
      "inputs": [
        {
          "internalType": "address",
          "name": "from",
          "type": "address"
        },
        {
          "internalType": "address",
          "name": "to",
          "type": "address"
        },
        {
          "internalType": "uint256",
          "name": "tokenId",
          "type": "uint256"
        }
      ],
      "name": "transferFrom",
      "outputs": [],
      "stateMutability": "nonpayable",
      "type": "function"
    },
    {
      "inputs": [
        {
          "internalType": "uint256",
          "name": "_listPrice",
          "type": "uint256"
        }
      ],
      "name": "updateListPrice",
      "outputs": [],
      "stateMutability": "payable",
      "type": "function"
    }
  ],
  "bytecode": "0x6080604052662386f26fc10000600a553480156200001c57600080fd5b506040518060400160405280600e81526020017f4e46544d61726b6574706c6163650000000000000000000000000000000000008152506040518060400160405280600481526020017f4e46544d0000000000000000000000000000000000000000000000000000000081525081600090816200009a919062000370565b508060019081620000ac919062000370565b50505033600960006101000a81548173ffffffffffffffffffffffffffffffffffffffff021916908373ffffffffffffffffffffffffffffffffffffffff16021790555062000457565b600081519050919050565b7f4e487b7100000000000000000000000000000000000000000000000000000000600052604160045260246000fd5b7f4e487b7100000000000000000000000000000000000000000000000000000000600052602260045260246000fd5b600060028204905060018216806200017857607f821691505b6020821081036200018e576200018d62000130565b5b50919050565b60008190508160005260206000209050919050565b60006020601f8301049050919050565b600082821b905092915050565b600060088302620001f87fffffffffffffffffffffffffffffffffffffffffffffffffffffffffffffffff82620001b9565b620002048683620001b9565b95508019841693508086168417925050509392505050565b6000819050919050565b6000819050919050565b6000620002516200024b62000245846200021c565b62000226565b6200021c565b9050919050565b6000819050919050565b6200026d8362000230565b620002856200027c8262000258565b848454620001c6565b825550505050565b600090565b6200029c6200028d565b620002a981848462000262565b505050565b5b81811015620002d157620002c560008262000292565b600181019050620002af565b5050565b601f8211156200032057620002ea8162000194565b620002f584620001a9565b8101602085101562000305578190505b6200031d6200031485620001a9565b830182620002ae565b50505b505050565b600082821c905092915050565b6000620003456000198460080262000325565b1980831691505092915050565b600062000360838362000332565b9150826002028217905092915050565b6200037b82620000f6565b67ffffffffffffffff81111562000397576200039662000101565b5b620003a382546200015f565b620003b0828285620002d5565b600060209050601f831160018114620003e85760008415620003d3578287015190505b620003df858262000352565b8655506200044f565b601f198416620003f88662000194565b60005b828110156200042257848901518255600182019150602085019450602081019050620003fb565b868310156200044257848901516200043e601f89168262000332565b8355505b6001600288020188555050505b505050505050565b613de080620004676000396000f3fe6080604052600436106101355760003560e01c80638e264590116100ab578063c322579c1161006f578063c322579c14610430578063c87b56dd1461044c578063d1a88ae514610489578063e0391b09146104b4578063e985e9c5146104df578063ef2d17461461051c57610135565b80638e2645901461035a57806395d89b41146103975780639b1225c4146103c2578063a22cb465146103de578063b88d4fde1461040757610135565b80632f2f2d56116100fd5780632f2f2d561461023157806342842e0e14610261578063629cb2e41461028a5780636352211e146102b557806368f1945f146102f257806370a082311461031d57610135565b806301ffc9a71461013a57806306fdde0314610177578063081812fc146101a2578063095ea7b3146101df57806323b872dd14610208575b600080fd5b34801561014657600080fd5b50610161600480360381019061015c919061284e565b610547565b60405161016e9190612896565b60405180910390f35b34801561018357600080fd5b5061018c6105a8565b6040516101999190612941565b60405180910390f35b3480156101ae57600080fd5b506101c960048036038101906101c49190612999565b61063a565b6040516101d69190612a07565b60405180910390f35b3480156101eb57600080fd5b5061020660048036038101906102019190612a4e565b610680565b005b34801561021457600080fd5b5061022f600480360381019061022a9190612a8e565b610797565b005b61024b60048036038101906102469190612c16565b6107f7565b6040516102589190612c9d565b60405180910390f35b34801561026d57600080fd5b5061028860048036038101906102839190612a8e565b610921565b005b34801561029657600080fd5b5061029f610941565b6040516102ac9190612e0e565b60405180910390f35b3480156102c157600080fd5b506102dc60048036038101906102d79190612999565b610d22565b6040516102e99190612a07565b60405180910390f35b3480156102fe57600080fd5b50610307610da8565b6040516103149190612c9d565b60405180910390f35b34801561032957600080fd5b50610344600480360381019061033f9190612e30565b610db2565b6040516103519190612c9d565b60405180910390f35b34801561036657600080fd5b50610381600480360381019061037c9190612999565b610e69565b60405161038e9190612ec5565b60405180910390f35b3480156103a357600080fd5b506103ac610f71565b6040516103b99190612941565b60405180910390f35b6103dc60048036038101906103d79190612999565b611003565b005b3480156103ea57600080fd5b5061040560048036038101906104009190612f0c565b6111f5565b005b34801561041357600080fd5b5061042e60048036038101906104299190612fed565b61120b565b005b61044a60048036038101906104459190612999565b61126d565b005b34801561045857600080fd5b50610473600480360381019061046e9190612999565b611307565b6040516104809190612941565b60405180910390f35b34801561049557600080fd5b5061049e611419565b6040516104ab9190612ec5565b60405180910390f35b3480156104c057600080fd5b506104c961152e565b6040516104d69190612e0e565b60405180910390f35b3480156104eb57600080fd5b5061050660048036038101906105019190613070565b611700565b6040516105139190612896565b60405180910390f35b34801561052857600080fd5b50610531611794565b60405161053e9190612c9d565b60405180910390f35b6000634906490660e01b7bffffffffffffffffffffffffffffffffffffffffffffffffffffffff1916827bffffffffffffffffffffffffffffffffffffffffffffffffffffffff191614806105a157506105a0826117a5565b5b9050919050565b6060600080546105b7906130df565b80601f01602080910402602001604051908101604052809291908181526020018280546105e3906130df565b80156106305780601f1061060557610100808354040283529160200191610630565b820191906000526020600020905b81548152906001019060200180831161061357829003601f168201915b5050505050905090565b600061064582611887565b6004600083815260200190815260200160002060009054906101000a900473ffffffffffffffffffffffffffffffffffffffff169050919050565b600061068b82610d22565b90508073ffffffffffffffffffffffffffffffffffffffff168373ffffffffffffffffffffffffffffffffffffffff16036106fb576040517f08c379a00000000000000000000000000000000000000000000000000000000081526004016106f290613182565b60405180910390fd5b8073ffffffffffffffffffffffffffffffffffffffff1661071a6118d2565b73ffffffffffffffffffffffffffffffffffffffff1614806107495750610748816107436118d2565b611700565b5b610788576040517f08c379a000000000000000000000000000000000000000000000000000000000815260040161077f90613214565b60405180910390fd5b61079283836118da565b505050565b6107a86107a26118d2565b82611993565b6107e7576040517f08c379a00000000000000000000000000000000000000000000000000000000081526004016107de906132a6565b60405180910390fd5b6107f2838383611a28565b505050565b6000600a54341461083d576040517f08c379a000000000000000000000000000000000000000000000000000000000815260040161083490613312565b60405180910390fd5b6108476007611d21565b60006108536007611d37565b905061085f3382611d45565b6108698185611d63565b60405180606001604052808281526020013373ffffffffffffffffffffffffffffffffffffffff16815260200184815250600d60008381526020019081526020016000206000820151816000015560208201518160010160006101000a81548173ffffffffffffffffffffffffffffffffffffffff021916908373ffffffffffffffffffffffffffffffffffffffff160217905550604082015181600201908161091391906134de565b509050508091505092915050565b61093c8383836040518060200160405280600081525061120b565b505050565b6060600061094f6007611d37565b9050600080600080600090505b84811015610a75573373ffffffffffffffffffffffffffffffffffffffff16600b600060018461098c91906135df565b815260200190815260200160002060010160009054906101000a900473ffffffffffffffffffffffffffffffffffffffff1673ffffffffffffffffffffffffffffffffffffffff161480610a4d57503373ffffffffffffffffffffffffffffffffffffffff16600b6000600184610a0391906135df565b815260200190815260200160002060020160009054906101000a900473ffffffffffffffffffffffffffffffffffffffff1673ffffffffffffffffffffffffffffffffffffffff16145b15610a6257600184610a5f91906135df565b93505b8080610a6d90613613565b91505061095c565b5060008367ffffffffffffffff811115610a9257610a91612aeb565b5b604051908082528060200260200182016040528015610acb57816020015b610ab8612785565b815260200190600190039081610ab05790505b50905060005b85811015610d16573373ffffffffffffffffffffffffffffffffffffffff16600b6000600184610b0191906135df565b815260200190815260200160002060010160009054906101000a900473ffffffffffffffffffffffffffffffffffffffff1673ffffffffffffffffffffffffffffffffffffffff161480610bc257503373ffffffffffffffffffffffffffffffffffffffff16600b6000600184610b7891906135df565b815260200190815260200160002060020160009054906101000a900473ffffffffffffffffffffffffffffffffffffffff1673ffffffffffffffffffffffffffffffffffffffff16145b15610d0357600181610bd491906135df565b92506000600b60008581526020019081526020016000209050806040518060a0016040529081600082015481526020016001820160009054906101000a900473ffffffffffffffffffffffffffffffffffffffff1673ffffffffffffffffffffffffffffffffffffffff1673ffffffffffffffffffffffffffffffffffffffff1681526020016002820160009054906101000a900473ffffffffffffffffffffffffffffffffffffffff1673ffffffffffffffffffffffffffffffffffffffff1673ffffffffffffffffffffffffffffffffffffffff168152602001600382015481526020016004820160009054906101000a900460ff161515151581525050838681518110610ce757610ce661365b565b5b6020026020010181905250600185610cff91906135df565b9450505b8080610d0e90613613565b915050610ad1565b50809550505050505090565b600080610d2e83611e07565b9050600073ffffffffffffffffffffffffffffffffffffffff168173ffffffffffffffffffffffffffffffffffffffff1603610d9f576040517f08c379a0000000000000000000000000000000000000000000000000000000008152600401610d96906136d6565b60405180910390fd5b80915050919050565b6000600a54905090565b60008073ffffffffffffffffffffffffffffffffffffffff168273ffffffffffffffffffffffffffffffffffffffff1603610e22576040517f08c379a0000000000000000000000000000000000000000000000000000000008152600401610e1990613768565b60405180910390fd5b600360008373ffffffffffffffffffffffffffffffffffffffff1673ffffffffffffffffffffffffffffffffffffffff168152602001908152602001600020549050919050565b610e71612785565b600b60008381526020019081526020016000206040518060a0016040529081600082015481526020016001820160009054906101000a900473ffffffffffffffffffffffffffffffffffffffff1673ffffffffffffffffffffffffffffffffffffffff1673ffffffffffffffffffffffffffffffffffffffff1681526020016002820160009054906101000a900473ffffffffffffffffffffffffffffffffffffffff1673ffffffffffffffffffffffffffffffffffffffff1673ffffffffffffffffffffffffffffffffffffffff168152602001600382015481526020016004820160009054906101000a900460ff1615151515815250509050919050565b606060018054610f80906130df565b80601f0160208091040260200160405190810160405280929190818152602001828054610fac906130df565b8015610ff95780601f10610fce57610100808354040283529160200191610ff9565b820191906000526020600020905b815481529060010190602001808311610fdc57829003601f168201915b5050505050905090565b6000600b60008381526020019081526020016000206003015490506000600b600084815260200190815260200160002060020160009054906101000a900473ffffffffffffffffffffffffffffffffffffffff16905081341461109b576040517f08c379a0000000000000000000000000000000000000000000000000000000008152600401611092906137fa565b60405180910390fd5b6001600b600085815260200190815260200160002060040160006101000a81548160ff02191690831515021790555033600b600085815260200190815260200160002060020160006101000a81548173ffffffffffffffffffffffffffffffffffffffff021916908373ffffffffffffffffffffffffffffffffffffffff1602179055506111296008611d21565b611134303385611a28565b61113e3084610680565b600960009054906101000a900473ffffffffffffffffffffffffffffffffffffffff1673ffffffffffffffffffffffffffffffffffffffff166108fc600a549081150290604051600060405180830381858888f193505050501580156111a8573d6000803e3d6000fd5b508073ffffffffffffffffffffffffffffffffffffffff166108fc349081150290604051600060405180830381858888f193505050501580156111ef573d6000803e3d6000fd5b50505050565b6112076112006118d2565b8383611e44565b5050565b61121c6112166118d2565b83611993565b61125b576040517f08c379a0000000000000000000000000000000000000000000000000000000008152600401611252906132a6565b60405180910390fd5b61126784848484611fb0565b50505050565b3373ffffffffffffffffffffffffffffffffffffffff16600960009054906101000a900473ffffffffffffffffffffffffffffffffffffffff1673ffffffffffffffffffffffffffffffffffffffff16146112fd576040517f08c379a00000000000000000000000000000000000000000000000000000000081526004016112f49061388c565b60405180910390fd5b80600a8190555050565b606061131282611887565b6000600660008481526020019081526020016000208054611332906130df565b80601f016020809104026020016040519081016040528092919081815260200182805461135e906130df565b80156113ab5780601f10611380576101008083540402835291602001916113ab565b820191906000526020600020905b81548152906001019060200180831161138e57829003601f168201915b5050505050905060006113bc61200c565b905060008151036113d1578192505050611414565b6000825111156114065780826040516020016113ee9291906138e8565b60405160208183030381529060405292505050611414565b61140f84612023565b925050505b919050565b611421612785565b600061142d6007611d37565b9050600b60008281526020019081526020016000206040518060a0016040529081600082015481526020016001820160009054906101000a900473ffffffffffffffffffffffffffffffffffffffff1673ffffffffffffffffffffffffffffffffffffffff1673ffffffffffffffffffffffffffffffffffffffff1681526020016002820160009054906101000a900473ffffffffffffffffffffffffffffffffffffffff1673ffffffffffffffffffffffffffffffffffffffff1673ffffffffffffffffffffffffffffffffffffffff168152602001600382015481526020016004820160009054906101000a900460ff16151515158152505091505090565b6060600061153c6007611d37565b905060008167ffffffffffffffff81111561155a57611559612aeb565b5b60405190808252806020026020018201604052801561159357816020015b611580612785565b8152602001906001900390816115785790505b50905060008080600090505b848110156116f5576001816115b491906135df565b91506000600b60008481526020019081526020016000209050806040518060a0016040529081600082015481526020016001820160009054906101000a900473ffffffffffffffffffffffffffffffffffffffff1673ffffffffffffffffffffffffffffffffffffffff1673ffffffffffffffffffffffffffffffffffffffff1681526020016002820160009054906101000a900473ffffffffffffffffffffffffffffffffffffffff1673ffffffffffffffffffffffffffffffffffffffff1673ffffffffffffffffffffffffffffffffffffffff168152602001600382015481526020016004820160009054906101000a900460ff1615151515815250508585815181106116c7576116c661365b565b5b60200260200101819052506001846116df91906135df565b93505080806116ed90613613565b91505061159f565b508294505050505090565b6000600560008473ffffffffffffffffffffffffffffffffffffffff1673ffffffffffffffffffffffffffffffffffffffff16815260200190815260200160002060008373ffffffffffffffffffffffffffffffffffffffff1673ffffffffffffffffffffffffffffffffffffffff16815260200190815260200160002060009054906101000a900460ff16905092915050565b60006117a06007611d37565b905090565b60007f80ac58cd000000000000000000000000000000000000000000000000000000007bffffffffffffffffffffffffffffffffffffffffffffffffffffffff1916827bffffffffffffffffffffffffffffffffffffffffffffffffffffffff1916148061187057507f5b5e139f000000000000000000000000000000000000000000000000000000007bffffffffffffffffffffffffffffffffffffffffffffffffffffffff1916827bffffffffffffffffffffffffffffffffffffffffffffffffffffffff1916145b80611880575061187f8261208b565b5b9050919050565b611890816120f5565b6118cf576040517f08c379a00000000000000000000000000000000000000000000000000000000081526004016118c6906136d6565b60405180910390fd5b50565b600033905090565b816004600083815260200190815260200160002060006101000a81548173ffffffffffffffffffffffffffffffffffffffff021916908373ffffffffffffffffffffffffffffffffffffffff160217905550808273ffffffffffffffffffffffffffffffffffffffff1661194d83610d22565b73ffffffffffffffffffffffffffffffffffffffff167f8c5be1e5ebec7d5bd14f71427d1e84f3dd0314c0f7b2291e5b200ac8c7c3b92560405160405180910390a45050565b60008061199f83610d22565b90508073ffffffffffffffffffffffffffffffffffffffff168473ffffffffffffffffffffffffffffffffffffffff1614806119e157506119e08185611700565b5b80611a1f57508373ffffffffffffffffffffffffffffffffffffffff16611a078461063a565b73ffffffffffffffffffffffffffffffffffffffff16145b91505092915050565b8273ffffffffffffffffffffffffffffffffffffffff16611a4882610d22565b73ffffffffffffffffffffffffffffffffffffffff1614611a9e576040517f08c379a0000000000000000000000000000000000000000000000000000000008152600401611a959061397e565b60405180910390fd5b600073ffffffffffffffffffffffffffffffffffffffff168273ffffffffffffffffffffffffffffffffffffffff1603611b0d576040517f08c379a0000000000000000000000000000000000000000000000000000000008152600401611b0490613a10565b60405180910390fd5b611b1a8383836001612136565b8273ffffffffffffffffffffffffffffffffffffffff16611b3a82610d22565b73ffffffffffffffffffffffffffffffffffffffff1614611b90576040517f08c379a0000000000000000000000000000000000000000000000000000000008152600401611b879061397e565b60405180910390fd5b6004600082815260200190815260200160002060006101000a81549073ffffffffffffffffffffffffffffffffffffffff02191690556001600360008573ffffffffffffffffffffffffffffffffffffffff1673ffffffffffffffffffffffffffffffffffffffff168152602001908152602001600020600082825403925050819055506001600360008473ffffffffffffffffffffffffffffffffffffffff1673ffffffffffffffffffffffffffffffffffffffff16815260200190815260200160002060008282540192505081905550816002600083815260200190815260200160002060006101000a81548173ffffffffffffffffffffffffffffffffffffffff021916908373ffffffffffffffffffffffffffffffffffffffff160217905550808273ffffffffffffffffffffffffffffffffffffffff168473ffffffffffffffffffffffffffffffffffffffff167fddf252ad1be2c89b69c2b068fc378daa952ba7f163c4a11628f55a4df523b3ef60405160405180910390a4611d1c838383600161213c565b505050565b6001816000016000828254019250508190555050565b600081600001549050919050565b611d5f828260405180602001604052806000815250612142565b5050565b611d6c826120f5565b611dab576040517f08c379a0000000000000000000000000000000000000000000000000000000008152600401611da290613aa2565b60405180910390fd5b80600660008481526020019081526020016000209081611dcb91906134de565b507ff8e1a15aba9398e019f0b49df1a4fde98ee17ae345cb5f6b5e2c27f5033e8ce782604051611dfb9190612c9d565b60405180910390a15050565b60006002600083815260200190815260200160002060009054906101000a900473ffffffffffffffffffffffffffffffffffffffff169050919050565b8173ffffffffffffffffffffffffffffffffffffffff168373ffffffffffffffffffffffffffffffffffffffff1603611eb2576040517f08c379a0000000000000000000000000000000000000000000000000000000008152600401611ea990613b0e565b60405180910390fd5b80600560008573ffffffffffffffffffffffffffffffffffffffff1673ffffffffffffffffffffffffffffffffffffffff16815260200190815260200160002060008473ffffffffffffffffffffffffffffffffffffffff1673ffffffffffffffffffffffffffffffffffffffff16815260200190815260200160002060006101000a81548160ff0219169083151502179055508173ffffffffffffffffffffffffffffffffffffffff168373ffffffffffffffffffffffffffffffffffffffff167f17307eab39ab6107e8899845ad3d59bd9653f200f220920489ca2b5937696c3183604051611fa39190612896565b60405180910390a3505050565b611fbb848484611a28565b611fc78484848461219d565b612006576040517f08c379a0000000000000000000000000000000000000000000000000000000008152600401611ffd90613ba0565b60405180910390fd5b50505050565b606060405180602001604052806000815250905090565b606061202e82611887565b600061203861200c565b905060008151116120585760405180602001604052806000815250612083565b8061206284612324565b6040516020016120739291906138e8565b6040516020818303038152906040525b915050919050565b60007f01ffc9a7000000000000000000000000000000000000000000000000000000007bffffffffffffffffffffffffffffffffffffffffffffffffffffffff1916827bffffffffffffffffffffffffffffffffffffffffffffffffffffffff1916149050919050565b60008073ffffffffffffffffffffffffffffffffffffffff1661211783611e07565b73ffffffffffffffffffffffffffffffffffffffff1614159050919050565b50505050565b50505050565b61214c83836123f2565b612159600084848461219d565b612198576040517f08c379a000000000000000000000000000000000000000000000000000000000815260040161218f90613ba0565b60405180910390fd5b505050565b60006121be8473ffffffffffffffffffffffffffffffffffffffff1661260f565b15612317578373ffffffffffffffffffffffffffffffffffffffff1663150b7a026121e76118d2565b8786866040518563ffffffff1660e01b81526004016122099493929190613c15565b6020604051808303816000875af192505050801561224557506040513d601f19601f820116820180604052508101906122429190613c76565b60015b6122c7573d8060008114612275576040519150601f19603f3d011682016040523d82523d6000602084013e61227a565b606091505b5060008151036122bf576040517f08c379a00000000000000000000000000000000000000000000000000000000081526004016122b690613ba0565b60405180910390fd5b805181602001fd5b63150b7a0260e01b7bffffffffffffffffffffffffffffffffffffffffffffffffffffffff1916817bffffffffffffffffffffffffffffffffffffffffffffffffffffffff19161491505061231c565b600190505b949350505050565b60606000600161233384612632565b01905060008167ffffffffffffffff81111561235257612351612aeb565b5b6040519080825280601f01601f1916602001820160405280156123845781602001600182028036833780820191505090505b509050600082602001820190505b6001156123e7578080600190039150507f3031323334353637383961626364656600000000000000000000000000000000600a86061a8153600a85816123db576123da613ca3565b5b04945060008503612392575b819350505050919050565b600073ffffffffffffffffffffffffffffffffffffffff168273ffffffffffffffffffffffffffffffffffffffff1603612461576040517f08c379a000000000000000000000000000000000000000000000000000000000815260040161245890613d1e565b60405180910390fd5b61246a816120f5565b156124aa576040517f08c379a00000000000000000000000000000000000000000000000000000000081526004016124a190613d8a565b60405180910390fd5b6124b8600083836001612136565b6124c1816120f5565b15612501576040517f08c379a00000000000000000000000000000000000000000000000000000000081526004016124f890613d8a565b60405180910390fd5b6001600360008473ffffffffffffffffffffffffffffffffffffffff1673ffffffffffffffffffffffffffffffffffffffff16815260200190815260200160002060008282540192505081905550816002600083815260200190815260200160002060006101000a81548173ffffffffffffffffffffffffffffffffffffffff021916908373ffffffffffffffffffffffffffffffffffffffff160217905550808273ffffffffffffffffffffffffffffffffffffffff16600073ffffffffffffffffffffffffffffffffffffffff167fddf252ad1be2c89b69c2b068fc378daa952ba7f163c4a11628f55a4df523b3ef60405160405180910390a461260b60008383600161213c565b5050565b6000808273ffffffffffffffffffffffffffffffffffffffff163b119050919050565b600080600090507a184f03e93ff9f4daa797ed6e38ed64bf6a1f0100000000000000008310612690577a184f03e93ff9f4daa797ed6e38ed64bf6a1f010000000000000000838161268657612685613ca3565b5b0492506040810190505b6d04ee2d6d415b85acef810000000083106126cd576d04ee2d6d415b85acef810000000083816126c3576126c2613ca3565b5b0492506020810190505b662386f26fc1000083106126fc57662386f26fc1000083816126f2576126f1613ca3565b5b0492506010810190505b6305f5e1008310612725576305f5e100838161271b5761271a613ca3565b5b0492506008810190505b612710831061274a5761271083816127405761273f613ca3565b5b0492506004810190505b6064831061276d576064838161276357612762613ca3565b5b0492506002810190505b600a831061277c576001810190505b80915050919050565b6040518060a0016040528060008152602001600073ffffffffffffffffffffffffffffffffffffffff168152602001600073ffffffffffffffffffffffffffffffffffffffff168152602001600081526020016000151581525090565b6000604051905090565b600080fd5b600080fd5b60007fffffffff0000000000000000000000000000000000000000000000000000000082169050919050565b61282b816127f6565b811461283657600080fd5b50565b60008135905061284881612822565b92915050565b600060208284031215612864576128636127ec565b5b600061287284828501612839565b91505092915050565b60008115159050919050565b6128908161287b565b82525050565b60006020820190506128ab6000830184612887565b92915050565b600081519050919050565b600082825260208201905092915050565b60005b838110156128eb5780820151818401526020810190506128d0565b60008484015250505050565b6000601f19601f8301169050919050565b6000612913826128b1565b61291d81856128bc565b935061292d8185602086016128cd565b612936816128f7565b840191505092915050565b6000602082019050818103600083015261295b8184612908565b905092915050565b6000819050919050565b61297681612963565b811461298157600080fd5b50565b6000813590506129938161296d565b92915050565b6000602082840312156129af576129ae6127ec565b5b60006129bd84828501612984565b91505092915050565b600073ffffffffffffffffffffffffffffffffffffffff82169050919050565b60006129f1826129c6565b9050919050565b612a01816129e6565b82525050565b6000602082019050612a1c60008301846129f8565b92915050565b612a2b816129e6565b8114612a3657600080fd5b50565b600081359050612a4881612a22565b92915050565b60008060408385031215612a6557612a646127ec565b5b6000612a7385828601612a39565b9250506020612a8485828601612984565b9150509250929050565b600080600060608486031215612aa757612aa66127ec565b5b6000612ab586828701612a39565b9350506020612ac686828701612a39565b9250506040612ad786828701612984565b9150509250925092565b600080fd5b600080fd5b7f4e487b7100000000000000000000000000000000000000000000000000000000600052604160045260246000fd5b612b23826128f7565b810181811067ffffffffffffffff82111715612b4257612b41612aeb565b5b80604052505050565b6000612b556127e2565b9050612b618282612b1a565b919050565b600067ffffffffffffffff821115612b8157612b80612aeb565b5b612b8a826128f7565b9050602081019050919050565b82818337600083830152505050565b6000612bb9612bb484612b66565b612b4b565b905082815260208101848484011115612bd557612bd4612ae6565b5b612be0848285612b97565b509392505050565b600082601f830112612bfd57612bfc612ae1565b5b8135612c0d848260208601612ba6565b91505092915050565b60008060408385031215612c2d57612c2c6127ec565b5b600083013567ffffffffffffffff811115612c4b57612c4a6127f1565b5b612c5785828601612be8565b925050602083013567ffffffffffffffff811115612c7857612c776127f1565b5b612c8485828601612be8565b9150509250929050565b612c9781612963565b82525050565b6000602082019050612cb26000830184612c8e565b92915050565b600081519050919050565b600082825260208201905092915050565b6000819050602082019050919050565b612ced81612963565b82525050565b6000612cfe826129c6565b9050919050565b612d0e81612cf3565b82525050565b612d1d8161287b565b82525050565b60a082016000820151612d396000850182612ce4565b506020820151612d4c6020850182612d05565b506040820151612d5f6040850182612d05565b506060820151612d726060850182612ce4565b506080820151612d856080850182612d14565b50505050565b6000612d978383612d23565b60a08301905092915050565b6000602082019050919050565b6000612dbb82612cb8565b612dc58185612cc3565b9350612dd083612cd4565b8060005b83811015612e01578151612de88882612d8b565b9750612df383612da3565b925050600181019050612dd4565b5085935050505092915050565b60006020820190508181036000830152612e288184612db0565b905092915050565b600060208284031215612e4657612e456127ec565b5b6000612e5484828501612a39565b91505092915050565b60a082016000820151612e736000850182612ce4565b506020820151612e866020850182612d05565b506040820151612e996040850182612d05565b506060820151612eac6060850182612ce4565b506080820151612ebf6080850182612d14565b50505050565b600060a082019050612eda6000830184612e5d565b92915050565b612ee98161287b565b8114612ef457600080fd5b50565b600081359050612f0681612ee0565b92915050565b60008060408385031215612f2357612f226127ec565b5b6000612f3185828601612a39565b9250506020612f4285828601612ef7565b9150509250929050565b600067ffffffffffffffff821115612f6757612f66612aeb565b5b612f70826128f7565b9050602081019050919050565b6000612f90612f8b84612f4c565b612b4b565b905082815260208101848484011115612fac57612fab612ae6565b5b612fb7848285612b97565b509392505050565b600082601f830112612fd457612fd3612ae1565b5b8135612fe4848260208601612f7d565b91505092915050565b60008060008060808587031215613007576130066127ec565b5b600061301587828801612a39565b945050602061302687828801612a39565b935050604061303787828801612984565b925050606085013567ffffffffffffffff811115613058576130576127f1565b5b61306487828801612fbf565b91505092959194509250565b60008060408385031215613087576130866127ec565b5b600061309585828601612a39565b92505060206130a685828601612a39565b9150509250929050565b7f4e487b7100000000000000000000000000000000000000000000000000000000600052602260045260246000fd5b600060028204905060018216806130f757607f821691505b60208210810361310a576131096130b0565b5b50919050565b7f4552433732313a20617070726f76616c20746f2063757272656e74206f776e6560008201527f7200000000000000000000000000000000000000000000000000000000000000602082015250565b600061316c6021836128bc565b915061317782613110565b604082019050919050565b6000602082019050818103600083015261319b8161315f565b9050919050565b7f4552433732313a20617070726f76652063616c6c6572206973206e6f7420746f60008201527f6b656e206f776e6572206f7220617070726f76656420666f7220616c6c000000602082015250565b60006131fe603d836128bc565b9150613209826131a2565b604082019050919050565b6000602082019050818103600083015261322d816131f1565b9050919050565b7f4552433732313a2063616c6c6572206973206e6f7420746f6b656e206f776e6560008201527f72206f7220617070726f76656400000000000000000000000000000000000000602082015250565b6000613290602d836128bc565b915061329b82613234565b604082019050919050565b600060208201905081810360008301526132bf81613283565b9050919050565b7f302e303120455448206d696e74696e6720666565207265717569726564000000600082015250565b60006132fc601d836128bc565b9150613307826132c6565b602082019050919050565b6000602082019050818103600083015261332b816132ef565b9050919050565b60008190508160005260206000209050919050565b60006020601f8301049050919050565b600082821b905092915050565b6000600883026133947fffffffffffffffffffffffffffffffffffffffffffffffffffffffffffffffff82613357565b61339e8683613357565b95508019841693508086168417925050509392505050565b6000819050919050565b60006133db6133d66133d184612963565b6133b6565b612963565b9050919050565b6000819050919050565b6133f5836133c0565b613409613401826133e2565b848454613364565b825550505050565b600090565b61341e613411565b6134298184846133ec565b505050565b5b8181101561344d57613442600082613416565b60018101905061342f565b5050565b601f8211156134925761346381613332565b61346c84613347565b8101602085101561347b578190505b61348f61348785613347565b83018261342e565b50505b505050565b600082821c905092915050565b60006134b560001984600802613497565b1980831691505092915050565b60006134ce83836134a4565b9150826002028217905092915050565b6134e7826128b1565b67ffffffffffffffff811115613500576134ff612aeb565b5b61350a82546130df565b613515828285613451565b600060209050601f8311600181146135485760008415613536578287015190505b61354085826134c2565b8655506135a8565b601f19841661355686613332565b60005b8281101561357e57848901518255600182019150602085019450602081019050613559565b8683101561359b5784890151613597601f8916826134a4565b8355505b6001600288020188555050505b505050505050565b7f4e487b7100000000000000000000000000000000000000000000000000000000600052601160045260246000fd5b60006135ea82612963565b91506135f583612963565b925082820190508082111561360d5761360c6135b0565b5b92915050565b600061361e82612963565b91507fffffffffffffffffffffffffffffffffffffffffffffffffffffffffffffffff82036136505761364f6135b0565b5b600182019050919050565b7f4e487b7100000000000000000000000000000000000000000000000000000000600052603260045260246000fd5b7f4552433732313a20696e76616c696420746f6b656e2049440000000000000000600082015250565b60006136c06018836128bc565b91506136cb8261368a565b602082019050919050565b600060208201905081810360008301526136ef816136b3565b9050919050565b7f4552433732313a2061646472657373207a65726f206973206e6f74206120766160008201527f6c6964206f776e65720000000000000000000000000000000000000000000000602082015250565b60006137526029836128bc565b915061375d826136f6565b604082019050919050565b6000602082019050818103600083015261378181613745565b9050919050565b7f506c65617365207375626d6974207468652061736b696e67207072696365206960008201527f6e206f7264657220746f20636f6d706c65746520746865207075726368617365602082015250565b60006137e46040836128bc565b91506137ef82613788565b604082019050919050565b60006020820190508181036000830152613813816137d7565b9050919050565b7f4f6e6c79206f776e65722063616e20757064617465206c697374696e6720707260008201527f6963650000000000000000000000000000000000000000000000000000000000602082015250565b60006138766023836128bc565b91506138818261381a565b604082019050919050565b600060208201905081810360008301526138a581613869565b9050919050565b600081905092915050565b60006138c2826128b1565b6138cc81856138ac565b93506138dc8185602086016128cd565b80840191505092915050565b60006138f482856138b7565b915061390082846138b7565b91508190509392505050565b7f4552433732313a207472616e736665722066726f6d20696e636f72726563742060008201527f6f776e6572000000000000000000000000000000000000000000000000000000602082015250565b60006139686025836128bc565b91506139738261390c565b604082019050919050565b600060208201905081810360008301526139978161395b565b9050919050565b7f4552433732313a207472616e7366657220746f20746865207a65726f2061646460008201527f7265737300000000000000000000000000000000000000000000000000000000602082015250565b60006139fa6024836128bc565b9150613a058261399e565b604082019050919050565b60006020820190508181036000830152613a29816139ed565b9050919050565b7f45524337323155524953746f726167653a2055524920736574206f66206e6f6e60008201527f6578697374656e7420746f6b656e000000000000000000000000000000000000602082015250565b6000613a8c602e836128bc565b9150613a9782613a30565b604082019050919050565b60006020820190508181036000830152613abb81613a7f565b9050919050565b7f4552433732313a20617070726f766520746f2063616c6c657200000000000000600082015250565b6000613af86019836128bc565b9150613b0382613ac2565b602082019050919050565b60006020820190508181036000830152613b2781613aeb565b9050919050565b7f4552433732313a207472616e7366657220746f206e6f6e20455243373231526560008201527f63656976657220696d706c656d656e7465720000000000000000000000000000602082015250565b6000613b8a6032836128bc565b9150613b9582613b2e565b604082019050919050565b60006020820190508181036000830152613bb981613b7d565b9050919050565b600081519050919050565b600082825260208201905092915050565b6000613be782613bc0565b613bf18185613bcb565b9350613c018185602086016128cd565b613c0a816128f7565b840191505092915050565b6000608082019050613c2a60008301876129f8565b613c3760208301866129f8565b613c446040830185612c8e565b8181036060830152613c568184613bdc565b905095945050505050565b600081519050613c7081612822565b92915050565b600060208284031215613c8c57613c8b6127ec565b5b6000613c9a84828501613c61565b91505092915050565b7f4e487b7100000000000000000000000000000000000000000000000000000000600052601260045260246000fd5b7f4552433732313a206d696e7420746f20746865207a65726f2061646472657373600082015250565b6000613d086020836128bc565b9150613d1382613cd2565b602082019050919050565b60006020820190508181036000830152613d3781613cfb565b9050919050565b7f4552433732313a20746f6b656e20616c7265616479206d696e74656400000000600082015250565b6000613d74601c836128bc565b9150613d7f82613d3e565b602082019050919050565b60006020820190508181036000830152613da381613d67565b905091905056fea2646970667358221220fb29c09499e46c6895fc194f0cb6702b00c417a559b26f7fc195677092065cf464736f6c63430008120033",
  "linkReferences": {},
  "deployedLinkReferences": {}
}