{
  "address": "0x5FbDB2315678afecb367f032d93F642f64180aa3",
  "_format": "hh-sol-artifact-1",
  "contractName": "NFTMarketplace",
  "sourceName": "contracts/NFTMarketplace.sol",
  "abi": [
    {
      "inputs": [],
      "stateMutability": "nonpayable",
      "type": "constructor"
    },
    {
      "anonymous": false,
      "inputs": [
        {
          "indexed": true,
          "internalType": "address",
          "name": "owner",
          "type": "address"
        },
        {
          "indexed": true,
          "internalType": "address",
          "name": "approved",
          "type": "address"
        },
        {
          "indexed": true,
          "internalType": "uint256",
          "name": "tokenId",
          "type": "uint256"
        }
      ],
      "name": "Approval",
      "type": "event"
    },
    {
      "anonymous": false,
      "inputs": [
        {
          "indexed": true,
          "internalType": "address",
          "name": "owner",
          "type": "address"
        },
        {
          "indexed": true,
          "internalType": "address",
          "name": "operator",
          "type": "address"
        },
        {
          "indexed": false,
          "internalType": "bool",
          "name": "approved",
          "type": "bool"
        }
      ],
      "name": "ApprovalForAll",
      "type": "event"
    },
    {
      "anonymous": false,
      "inputs": [
        {
          "indexed": false,
          "internalType": "uint256",
          "name": "_fromTokenId",
          "type": "uint256"
        },
        {
          "indexed": false,
          "internalType": "uint256",
          "name": "_toTokenId",
          "type": "uint256"
        }
      ],
      "name": "BatchMetadataUpdate",
      "type": "event"
    },
    {
      "anonymous": false,
      "inputs": [
        {
          "indexed": false,
          "internalType": "uint256",
          "name": "_tokenId",
          "type": "uint256"
        }
      ],
      "name": "MetadataUpdate",
      "type": "event"
    },
    {
      "anonymous": false,
      "inputs": [
        {
          "indexed": true,
          "internalType": "uint256",
          "name": "tokenId",
          "type": "uint256"
        },
        {
          "indexed": false,
          "internalType": "address",
          "name": "owner",
          "type": "address"
        },
        {
          "indexed": false,
          "internalType": "address",
          "name": "seller",
          "type": "address"
        },
        {
          "indexed": false,
          "internalType": "uint256",
          "name": "price",
          "type": "uint256"
        },
        {
          "indexed": false,
          "internalType": "bool",
          "name": "currentlyListed",
          "type": "bool"
        }
      ],
      "name": "TokenListedSuccess",
      "type": "event"
    },
    {
      "anonymous": false,
      "inputs": [
        {
          "indexed": true,
          "internalType": "address",
          "name": "from",
          "type": "address"
        },
        {
          "indexed": true,
          "internalType": "address",
          "name": "to",
          "type": "address"
        },
        {
          "indexed": true,
          "internalType": "uint256",
          "name": "tokenId",
          "type": "uint256"
        }
      ],
      "name": "Transfer",
      "type": "event"
    },
    {
      "inputs": [
        {
          "internalType": "address",
          "name": "to",
          "type": "address"
        },
        {
          "internalType": "uint256",
          "name": "tokenId",
          "type": "uint256"
        }
      ],
      "name": "approve",
      "outputs": [],
      "stateMutability": "nonpayable",
      "type": "function"
    },
    {
      "inputs": [
        {
          "internalType": "address",
          "name": "owner",
          "type": "address"
        }
      ],
      "name": "balanceOf",
      "outputs": [
        {
          "internalType": "uint256",
          "name": "",
          "type": "uint256"
        }
      ],
      "stateMutability": "view",
      "type": "function"
    },
    {
      "inputs": [
        {
          "internalType": "uint256",
          "name": "tokenId",
          "type": "uint256"
        },
        {
          "internalType": "uint256",
          "name": "price",
          "type": "uint256"
        }
      ],
      "name": "createListedToken",
      "outputs": [],
      "stateMutability": "payable",
      "type": "function"
    },
    {
      "inputs": [
        {
          "internalType": "string",
          "name": "tokenURI",
          "type": "string"
        },
        {
          "internalType": "string",
          "name": "_name",
          "type": "string"
        }
      ],
      "name": "createToken",
      "outputs": [
        {
          "internalType": "uint256",
          "name": "",
          "type": "uint256"
        }
      ],
      "stateMutability": "payable",
      "type": "function"
    },
    {
      "inputs": [
        {
          "internalType": "uint256",
          "name": "tokenId",
          "type": "uint256"
        }
      ],
      "name": "executeSale",
      "outputs": [],
      "stateMutability": "payable",
      "type": "function"
    },
    {
      "inputs": [],
      "name": "getAllNFTs",
      "outputs": [
        {
          "components": [
            {
              "internalType": "uint256",
              "name": "tokenId",
              "type": "uint256"
            },
            {
              "internalType": "address payable",
              "name": "owner",
              "type": "address"
            },
            {
              "internalType": "address payable",
              "name": "seller",
              "type": "address"
            },
            {
              "internalType": "uint256",
              "name": "price",
              "type": "uint256"
            },
            {
              "internalType": "bool",
              "name": "currentlyListed",
              "type": "bool"
            }
          ],
          "internalType": "struct NFTMarketplace.ListedToken[]",
          "name": "",
          "type": "tuple[]"
        }
      ],
      "stateMutability": "view",
      "type": "function"
    },
    {
      "inputs": [
        {
          "internalType": "uint256",
          "name": "tokenId",
          "type": "uint256"
        }
      ],
      "name": "getApproved",
      "outputs": [
        {
          "internalType": "address",
          "name": "",
          "type": "address"
        }
      ],
      "stateMutability": "view",
      "type": "function"
    },
    {
      "inputs": [],
      "name": "getCurrentToken",
      "outputs": [
        {
          "internalType": "uint256",
          "name": "",
          "type": "uint256"
        }
      ],
      "stateMutability": "view",
      "type": "function"
    },
    {
      "inputs": [],
      "name": "getLatestIdToListedToken",
      "outputs": [
        {
          "components": [
            {
              "internalType": "uint256",
              "name": "tokenId",
              "type": "uint256"
            },
            {
              "internalType": "address payable",
              "name": "owner",
              "type": "address"
            },
            {
              "internalType": "address payable",
              "name": "seller",
              "type": "address"
            },
            {
              "internalType": "uint256",
              "name": "price",
              "type": "uint256"
            },
            {
              "internalType": "bool",
              "name": "currentlyListed",
              "type": "bool"
            }
          ],
          "internalType": "struct NFTMarketplace.ListedToken",
          "name": "",
          "type": "tuple"
        }
      ],
      "stateMutability": "view",
      "type": "function"
    },
    {
      "inputs": [],
      "name": "getListPrice",
      "outputs": [
        {
          "internalType": "uint256",
          "name": "",
          "type": "uint256"
        }
      ],
      "stateMutability": "view",
      "type": "function"
    },
    {
      "inputs": [
        {
          "internalType": "uint256",
          "name": "tokenId",
          "type": "uint256"
        }
      ],
      "name": "getListedTokenForId",
      "outputs": [
        {
          "components": [
            {
              "internalType": "uint256",
              "name": "tokenId",
              "type": "uint256"
            },
            {
              "internalType": "address payable",
              "name": "owner",
              "type": "address"
            },
            {
              "internalType": "address payable",
              "name": "seller",
              "type": "address"
            },
            {
              "internalType": "uint256",
              "name": "price",
              "type": "uint256"
            },
            {
              "internalType": "bool",
              "name": "currentlyListed",
              "type": "bool"
            }
          ],
          "internalType": "struct NFTMarketplace.ListedToken",
          "name": "",
          "type": "tuple"
        }
      ],
      "stateMutability": "view",
      "type": "function"
    },
    {
      "inputs": [],
      "name": "getMyNFTs",
      "outputs": [
        {
          "components": [
            {
              "internalType": "uint256",
              "name": "tokenId",
              "type": "uint256"
            },
            {
              "internalType": "address payable",
              "name": "owner",
              "type": "address"
            },
            {
              "internalType": "address payable",
              "name": "seller",
              "type": "address"
            },
            {
              "internalType": "uint256",
              "name": "price",
              "type": "uint256"
            },
            {
              "internalType": "bool",
              "name": "currentlyListed",
              "type": "bool"
            }
          ],
          "internalType": "struct NFTMarketplace.ListedToken[]",
          "name": "",
          "type": "tuple[]"
        }
      ],
      "stateMutability": "view",
      "type": "function"
    },
    {
      "inputs": [
        {
          "internalType": "address",
          "name": "owner",
          "type": "address"
        },
        {
          "internalType": "address",
          "name": "operator",
          "type": "address"
        }
      ],
      "name": "isApprovedForAll",
      "outputs": [
        {
          "internalType": "bool",
          "name": "",
          "type": "bool"
        }
      ],
      "stateMutability": "view",
      "type": "function"
    },
    {
      "inputs": [],
      "name": "name",
      "outputs": [
        {
          "internalType": "string",
          "name": "",
          "type": "string"
        }
      ],
      "stateMutability": "view",
      "type": "function"
    },
    {
      "inputs": [
        {
          "internalType": "uint256",
          "name": "tokenId",
          "type": "uint256"
        }
      ],
      "name": "ownerOf",
      "outputs": [
        {
          "internalType": "address",
          "name": "",
          "type": "address"
        }
      ],
      "stateMutability": "view",
      "type": "function"
    },
    {
      "inputs": [
        {
          "internalType": "address",
          "name": "from",
          "type": "address"
        },
        {
          "internalType": "address",
          "name": "to",
          "type": "address"
        },
        {
          "internalType": "uint256",
          "name": "tokenId",
          "type": "uint256"
        }
      ],
      "name": "safeTransferFrom",
      "outputs": [],
      "stateMutability": "nonpayable",
      "type": "function"
    },
    {
      "inputs": [
        {
          "internalType": "address",
          "name": "from",
          "type": "address"
        },
        {
          "internalType": "address",
          "name": "to",
          "type": "address"
        },
        {
          "internalType": "uint256",
          "name": "tokenId",
          "type": "uint256"
        },
        {
          "internalType": "bytes",
          "name": "data",
          "type": "bytes"
        }
      ],
      "name": "safeTransferFrom",
      "outputs": [],
      "stateMutability": "nonpayable",
      "type": "function"
    },
    {
      "inputs": [
        {
          "internalType": "address",
          "name": "operator",
          "type": "address"
        },
        {
          "internalType": "bool",
          "name": "approved",
          "type": "bool"
        }
      ],
      "name": "setApprovalForAll",
      "outputs": [],
      "stateMutability": "nonpayable",
      "type": "function"
    },
    {
      "inputs": [
        {
          "internalType": "bytes4",
          "name": "interfaceId",
          "type": "bytes4"
        }
      ],
      "name": "supportsInterface",
      "outputs": [
        {
          "internalType": "bool",
          "name": "",
          "type": "bool"
        }
      ],
      "stateMutability": "view",
      "type": "function"
    },
    {
      "inputs": [],
      "name": "symbol",
      "outputs": [
        {
          "internalType": "string",
          "name": "",
          "type": "string"
        }
      ],
      "stateMutability": "view",
      "type": "function"
    },
    {
      "inputs": [
        {
          "internalType": "uint256",
          "name": "tokenId",
          "type": "uint256"
        }
      ],
      "name": "tokenURI",
      "outputs": [
        {
          "internalType": "string",
          "name": "",
          "type": "string"
        }
      ],
      "stateMutability": "view",
      "type": "function"
    },
    {
      "inputs": [
        {
          "internalType": "address",
          "name": "from",
          "type": "address"
        },
        {
          "internalType": "address",
          "name": "to",
          "type": "address"
        },
        {
          "internalType": "uint256",
          "name": "tokenId",
          "type": "uint256"
        }
      ],
      "name": "transferFrom",
      "outputs": [],
      "stateMutability": "nonpayable",
      "type": "function"
    },
    {
      "inputs": [
        {
          "internalType": "uint256",
          "name": "_listPrice",
          "type": "uint256"
        }
      ],
      "name": "updateListPrice",
      "outputs": [],
      "stateMutability": "payable",
      "type": "function"
    }
  ],
  "bytecode": "0x6080604052662386f26fc10000600a553480156200001c57600080fd5b506040518060400160405280600a81526020017f426c75654d61726b6574000000000000000000000000000000000000000000008152506040518060400160405280600481526020017f424d524b0000000000000000000000000000000000000000000000000000000081525081600090816200009a919062000370565b508060019081620000ac919062000370565b50505033600960006101000a81548173ffffffffffffffffffffffffffffffffffffffff021916908373ffffffffffffffffffffffffffffffffffffffff16021790555062000457565b600081519050919050565b7f4e487b7100000000000000000000000000000000000000000000000000000000600052604160045260246000fd5b7f4e487b7100000000000000000000000000000000000000000000000000000000600052602260045260246000fd5b600060028204905060018216806200017857607f821691505b6020821081036200018e576200018d62000130565b5b50919050565b60008190508160005260206000209050919050565b60006020601f8301049050919050565b600082821b905092915050565b600060088302620001f87fffffffffffffffffffffffffffffffffffffffffffffffffffffffffffffffff82620001b9565b620002048683620001b9565b95508019841693508086168417925050509392505050565b6000819050919050565b6000819050919050565b6000620002516200024b62000245846200021c565b62000226565b6200021c565b9050919050565b6000819050919050565b6200026d8362000230565b620002856200027c8262000258565b848454620001c6565b825550505050565b600090565b6200029c6200028d565b620002a981848462000262565b505050565b5b81811015620002d157620002c560008262000292565b600181019050620002af565b5050565b601f8211156200032057620002ea8162000194565b620002f584620001a9565b8101602085101562000305578190505b6200031d6200031485620001a9565b830182620002ae565b50505b505050565b600082821c905092915050565b6000620003456000198460080262000325565b1980831691505092915050565b600062000360838362000332565b9150826002028217905092915050565b6200037b82620000f6565b67ffffffffffffffff81111562000397576200039662000101565b5b620003a382546200015f565b620003b0828285620002d5565b600060209050601f831160018114620003e85760008415620003d3578287015190505b620003df858262000352565b8655506200044f565b601f198416620003f88662000194565b60005b828110156200042257848901518255600182019150602085019450602081019050620003fb565b868310156200044257848901516200043e601f89168262000332565b8355505b6001600288020188555050505b505050505050565b6141cf80620004676000396000f3fe6080604052600436106101405760003560e01c806370a08231116100b6578063c322579c1161006f578063c322579c14610457578063c87b56dd14610473578063d1a88ae5146104b0578063e0391b09146104db578063e985e9c514610506578063ef2d17461461054357610140565b806370a08231146103445780638e2645901461038157806395d89b41146103be5780639b1225c4146103e9578063a22cb46514610405578063b88d4fde1461042e57610140565b80632f2f2d56116101085780632f2f2d561461023c57806342842e0e1461026c57806355524f5614610295578063629cb2e4146102b15780636352211e146102dc57806368f1945f1461031957610140565b806301ffc9a71461014557806306fdde0314610182578063081812fc146101ad578063095ea7b3146101ea57806323b872dd14610213575b600080fd5b34801561015157600080fd5b5061016c60048036038101906101679190612b00565b61056e565b6040516101799190612b48565b60405180910390f35b34801561018e57600080fd5b506101976105cf565b6040516101a49190612bf3565b60405180910390f35b3480156101b957600080fd5b506101d460048036038101906101cf9190612c4b565b610661565b6040516101e19190612cb9565b60405180910390f35b3480156101f657600080fd5b50610211600480360381019061020c9190612d00565b6106a7565b005b34801561021f57600080fd5b5061023a60048036038101906102359190612d40565b6107be565b005b61025660048036038101906102519190612ec8565b61081e565b6040516102639190612f4f565b60405180910390f35b34801561027857600080fd5b50610293600480360381019061028e9190612d40565b6109d0565b005b6102af60048036038101906102aa9190612f6a565b6109f0565b005b3480156102bd57600080fd5b506102c6610bf3565b6040516102d39190613100565b60405180910390f35b3480156102e857600080fd5b5061030360048036038101906102fe9190612c4b565b610fd4565b6040516103109190612cb9565b60405180910390f35b34801561032557600080fd5b5061032e61105a565b60405161033b9190612f4f565b60405180910390f35b34801561035057600080fd5b5061036b60048036038101906103669190613122565b611064565b6040516103789190612f4f565b60405180910390f35b34801561038d57600080fd5b506103a860048036038101906103a39190612c4b565b61111b565b6040516103b591906131b7565b60405180910390f35b3480156103ca57600080fd5b506103d3611223565b6040516103e09190612bf3565b60405180910390f35b61040360048036038101906103fe9190612c4b565b6112b5565b005b34801561041157600080fd5b5061042c600480360381019061042791906131fe565b6114a7565b005b34801561043a57600080fd5b50610455600480360381019061045091906132df565b6114bd565b005b610471600480360381019061046c9190612c4b565b61151f565b005b34801561047f57600080fd5b5061049a60048036038101906104959190612c4b565b6115b9565b6040516104a79190612bf3565b60405180910390f35b3480156104bc57600080fd5b506104c56116cb565b6040516104d291906131b7565b60405180910390f35b3480156104e757600080fd5b506104f06117e0565b6040516104fd9190613100565b60405180910390f35b34801561051257600080fd5b5061052d60048036038101906105289190613362565b6119b2565b60405161053a9190612b48565b60405180910390f35b34801561054f57600080fd5b50610558611a46565b6040516105659190612f4f565b60405180910390f35b6000634906490660e01b7bffffffffffffffffffffffffffffffffffffffffffffffffffffffff1916827bffffffffffffffffffffffffffffffffffffffffffffffffffffffff191614806105c857506105c782611a57565b5b9050919050565b6060600080546105de906133d1565b80601f016020809104026020016040519081016040528092919081815260200182805461060a906133d1565b80156106575780601f1061062c57610100808354040283529160200191610657565b820191906000526020600020905b81548152906001019060200180831161063a57829003601f168201915b5050505050905090565b600061066c82611b39565b6004600083815260200190815260200160002060009054906101000a900473ffffffffffffffffffffffffffffffffffffffff169050919050565b60006106b282610fd4565b90508073ffffffffffffffffffffffffffffffffffffffff168373ffffffffffffffffffffffffffffffffffffffff1603610722576040517f08c379a000000000000000000000000000000000000000000000000000000000815260040161071990613474565b60405180910390fd5b8073ffffffffffffffffffffffffffffffffffffffff16610741611b84565b73ffffffffffffffffffffffffffffffffffffffff161480610770575061076f8161076a611b84565b6119b2565b5b6107af576040517f08c379a00000000000000000000000000000000000000000000000000000000081526004016107a690613506565b60405180910390fd5b6107b98383611b8c565b505050565b6107cf6107c9611b84565b82611c45565b61080e576040517f08c379a000000000000000000000000000000000000000000000000000000000815260040161080590613598565b60405180910390fd5b610819838383611cda565b505050565b600061082a6007611fd3565b60006108366007611fe9565b90506108423382611ff7565b61084c8185612015565b6040518060a001604052808281526020013373ffffffffffffffffffffffffffffffffffffffff1681526020013373ffffffffffffffffffffffffffffffffffffffff1681526020016000815260200160001515815250600b60008381526020019081526020016000206000820151816000015560208201518160010160006101000a81548173ffffffffffffffffffffffffffffffffffffffff021916908373ffffffffffffffffffffffffffffffffffffffff16021790555060408201518160020160006101000a81548173ffffffffffffffffffffffffffffffffffffffff021916908373ffffffffffffffffffffffffffffffffffffffff1602179055506060820151816003015560808201518160040160006101000a81548160ff021916908315150217905550905050604051806040016040528082815260200184815250600c60008381526020019081526020016000206000820151816000015560208201518160010190816109c29190613764565b509050508091505092915050565b6109eb838383604051806020016040528060008152506114bd565b505050565b600a543414610a34576040517f08c379a0000000000000000000000000000000000000000000000000000000008152600401610a2b906138a8565b60405180910390fd5b60008111610a77576040517f08c379a0000000000000000000000000000000000000000000000000000000008152600401610a6e9061393a565b60405180910390fd5b6040518060a001604052808381526020013073ffffffffffffffffffffffffffffffffffffffff1681526020013373ffffffffffffffffffffffffffffffffffffffff16815260200182815260200160011515815250600b60008481526020019081526020016000206000820151816000015560208201518160010160006101000a81548173ffffffffffffffffffffffffffffffffffffffff021916908373ffffffffffffffffffffffffffffffffffffffff16021790555060408201518160020160006101000a81548173ffffffffffffffffffffffffffffffffffffffff021916908373ffffffffffffffffffffffffffffffffffffffff1602179055506060820151816003015560808201518160040160006101000a81548160ff021916908315150217905550905050610bb0333084611cda565b817f9339409317fd01fabff48b703019016f49159bacc801ae872d2ca637d226e4c03033846001604051610be7949392919061395a565b60405180910390a25050565b60606000610c016007611fe9565b9050600080600080600090505b84811015610d27573373ffffffffffffffffffffffffffffffffffffffff16600b6000600184610c3e91906139ce565b815260200190815260200160002060010160009054906101000a900473ffffffffffffffffffffffffffffffffffffffff1673ffffffffffffffffffffffffffffffffffffffff161480610cff57503373ffffffffffffffffffffffffffffffffffffffff16600b6000600184610cb591906139ce565b815260200190815260200160002060020160009054906101000a900473ffffffffffffffffffffffffffffffffffffffff1673ffffffffffffffffffffffffffffffffffffffff16145b15610d1457600184610d1191906139ce565b93505b8080610d1f90613a02565b915050610c0e565b5060008367ffffffffffffffff811115610d4457610d43612d9d565b5b604051908082528060200260200182016040528015610d7d57816020015b610d6a612a37565b815260200190600190039081610d625790505b50905060005b85811015610fc8573373ffffffffffffffffffffffffffffffffffffffff16600b6000600184610db391906139ce565b815260200190815260200160002060010160009054906101000a900473ffffffffffffffffffffffffffffffffffffffff1673ffffffffffffffffffffffffffffffffffffffff161480610e7457503373ffffffffffffffffffffffffffffffffffffffff16600b6000600184610e2a91906139ce565b815260200190815260200160002060020160009054906101000a900473ffffffffffffffffffffffffffffffffffffffff1673ffffffffffffffffffffffffffffffffffffffff16145b15610fb557600181610e8691906139ce565b92506000600b60008581526020019081526020016000209050806040518060a0016040529081600082015481526020016001820160009054906101000a900473ffffffffffffffffffffffffffffffffffffffff1673ffffffffffffffffffffffffffffffffffffffff1673ffffffffffffffffffffffffffffffffffffffff1681526020016002820160009054906101000a900473ffffffffffffffffffffffffffffffffffffffff1673ffffffffffffffffffffffffffffffffffffffff1673ffffffffffffffffffffffffffffffffffffffff168152602001600382015481526020016004820160009054906101000a900460ff161515151581525050838681518110610f9957610f98613a4a565b5b6020026020010181905250600185610fb191906139ce565b9450505b8080610fc090613a02565b915050610d83565b50809550505050505090565b600080610fe0836120b9565b9050600073ffffffffffffffffffffffffffffffffffffffff168173ffffffffffffffffffffffffffffffffffffffff1603611051576040517f08c379a000000000000000000000000000000000000000000000000000000000815260040161104890613ac5565b60405180910390fd5b80915050919050565b6000600a54905090565b60008073ffffffffffffffffffffffffffffffffffffffff168273ffffffffffffffffffffffffffffffffffffffff16036110d4576040517f08c379a00000000000000000000000000000000000000000000000000000000081526004016110cb90613b57565b60405180910390fd5b600360008373ffffffffffffffffffffffffffffffffffffffff1673ffffffffffffffffffffffffffffffffffffffff168152602001908152602001600020549050919050565b611123612a37565b600b60008381526020019081526020016000206040518060a0016040529081600082015481526020016001820160009054906101000a900473ffffffffffffffffffffffffffffffffffffffff1673ffffffffffffffffffffffffffffffffffffffff1673ffffffffffffffffffffffffffffffffffffffff1681526020016002820160009054906101000a900473ffffffffffffffffffffffffffffffffffffffff1673ffffffffffffffffffffffffffffffffffffffff1673ffffffffffffffffffffffffffffffffffffffff168152602001600382015481526020016004820160009054906101000a900460ff1615151515815250509050919050565b606060018054611232906133d1565b80601f016020809104026020016040519081016040528092919081815260200182805461125e906133d1565b80156112ab5780601f10611280576101008083540402835291602001916112ab565b820191906000526020600020905b81548152906001019060200180831161128e57829003601f168201915b5050505050905090565b6000600b60008381526020019081526020016000206003015490506000600b600084815260200190815260200160002060020160009054906101000a900473ffffffffffffffffffffffffffffffffffffffff16905081341461134d576040517f08c379a000000000000000000000000000000000000000000000000000000000815260040161134490613be9565b60405180910390fd5b6000600b600085815260200190815260200160002060040160006101000a81548160ff02191690831515021790555033600b600085815260200190815260200160002060020160006101000a81548173ffffffffffffffffffffffffffffffffffffffff021916908373ffffffffffffffffffffffffffffffffffffffff1602179055506113db6008611fd3565b6113e6303385611cda565b6113f030846106a7565b600960009054906101000a900473ffffffffffffffffffffffffffffffffffffffff1673ffffffffffffffffffffffffffffffffffffffff166108fc600a549081150290604051600060405180830381858888f1935050505015801561145a573d6000803e3d6000fd5b508073ffffffffffffffffffffffffffffffffffffffff166108fc349081150290604051600060405180830381858888f193505050501580156114a1573d6000803e3d6000fd5b50505050565b6114b96114b2611b84565b83836120f6565b5050565b6114ce6114c8611b84565b83611c45565b61150d576040517f08c379a000000000000000000000000000000000000000000000000000000000815260040161150490613598565b60405180910390fd5b61151984848484612262565b50505050565b3373ffffffffffffffffffffffffffffffffffffffff16600960009054906101000a900473ffffffffffffffffffffffffffffffffffffffff1673ffffffffffffffffffffffffffffffffffffffff16146115af576040517f08c379a00000000000000000000000000000000000000000000000000000000081526004016115a690613c7b565b60405180910390fd5b80600a8190555050565b60606115c482611b39565b60006006600084815260200190815260200160002080546115e4906133d1565b80601f0160208091040260200160405190810160405280929190818152602001828054611610906133d1565b801561165d5780601f106116325761010080835404028352916020019161165d565b820191906000526020600020905b81548152906001019060200180831161164057829003601f168201915b50505050509050600061166e6122be565b905060008151036116835781925050506116c6565b6000825111156116b85780826040516020016116a0929190613cd7565b604051602081830303815290604052925050506116c6565b6116c1846122d5565b925050505b919050565b6116d3612a37565b60006116df6007611fe9565b9050600b60008281526020019081526020016000206040518060a0016040529081600082015481526020016001820160009054906101000a900473ffffffffffffffffffffffffffffffffffffffff1673ffffffffffffffffffffffffffffffffffffffff1673ffffffffffffffffffffffffffffffffffffffff1681526020016002820160009054906101000a900473ffffffffffffffffffffffffffffffffffffffff1673ffffffffffffffffffffffffffffffffffffffff1673ffffffffffffffffffffffffffffffffffffffff168152602001600382015481526020016004820160009054906101000a900460ff16151515158152505091505090565b606060006117ee6007611fe9565b905060008167ffffffffffffffff81111561180c5761180b612d9d565b5b60405190808252806020026020018201604052801561184557816020015b611832612a37565b81526020019060019003908161182a5790505b50905060008080600090505b848110156119a75760018161186691906139ce565b91506000600b60008481526020019081526020016000209050806040518060a0016040529081600082015481526020016001820160009054906101000a900473ffffffffffffffffffffffffffffffffffffffff1673ffffffffffffffffffffffffffffffffffffffff1673ffffffffffffffffffffffffffffffffffffffff1681526020016002820160009054906101000a900473ffffffffffffffffffffffffffffffffffffffff1673ffffffffffffffffffffffffffffffffffffffff1673ffffffffffffffffffffffffffffffffffffffff168152602001600382015481526020016004820160009054906101000a900460ff16151515158152505085858151811061197957611978613a4a565b5b602002602001018190525060018461199191906139ce565b935050808061199f90613a02565b915050611851565b508294505050505090565b6000600560008473ffffffffffffffffffffffffffffffffffffffff1673ffffffffffffffffffffffffffffffffffffffff16815260200190815260200160002060008373ffffffffffffffffffffffffffffffffffffffff1673ffffffffffffffffffffffffffffffffffffffff16815260200190815260200160002060009054906101000a900460ff16905092915050565b6000611a526007611fe9565b905090565b60007f80ac58cd000000000000000000000000000000000000000000000000000000007bffffffffffffffffffffffffffffffffffffffffffffffffffffffff1916827bffffffffffffffffffffffffffffffffffffffffffffffffffffffff19161480611b2257507f5b5e139f000000000000000000000000000000000000000000000000000000007bffffffffffffffffffffffffffffffffffffffffffffffffffffffff1916827bffffffffffffffffffffffffffffffffffffffffffffffffffffffff1916145b80611b325750611b318261233d565b5b9050919050565b611b42816123a7565b611b81576040517f08c379a0000000000000000000000000000000000000000000000000000000008152600401611b7890613ac5565b60405180910390fd5b50565b600033905090565b816004600083815260200190815260200160002060006101000a81548173ffffffffffffffffffffffffffffffffffffffff021916908373ffffffffffffffffffffffffffffffffffffffff160217905550808273ffffffffffffffffffffffffffffffffffffffff16611bff83610fd4565b73ffffffffffffffffffffffffffffffffffffffff167f8c5be1e5ebec7d5bd14f71427d1e84f3dd0314c0f7b2291e5b200ac8c7c3b92560405160405180910390a45050565b600080611c5183610fd4565b90508073ffffffffffffffffffffffffffffffffffffffff168473ffffffffffffffffffffffffffffffffffffffff161480611c935750611c9281856119b2565b5b80611cd157508373ffffffffffffffffffffffffffffffffffffffff16611cb984610661565b73ffffffffffffffffffffffffffffffffffffffff16145b91505092915050565b8273ffffffffffffffffffffffffffffffffffffffff16611cfa82610fd4565b73ffffffffffffffffffffffffffffffffffffffff1614611d50576040517f08c379a0000000000000000000000000000000000000000000000000000000008152600401611d4790613d6d565b60405180910390fd5b600073ffffffffffffffffffffffffffffffffffffffff168273ffffffffffffffffffffffffffffffffffffffff1603611dbf576040517f08c379a0000000000000000000000000000000000000000000000000000000008152600401611db690613dff565b60405180910390fd5b611dcc83838360016123e8565b8273ffffffffffffffffffffffffffffffffffffffff16611dec82610fd4565b73ffffffffffffffffffffffffffffffffffffffff1614611e42576040517f08c379a0000000000000000000000000000000000000000000000000000000008152600401611e3990613d6d565b60405180910390fd5b6004600082815260200190815260200160002060006101000a81549073ffffffffffffffffffffffffffffffffffffffff02191690556001600360008573ffffffffffffffffffffffffffffffffffffffff1673ffffffffffffffffffffffffffffffffffffffff168152602001908152602001600020600082825403925050819055506001600360008473ffffffffffffffffffffffffffffffffffffffff1673ffffffffffffffffffffffffffffffffffffffff16815260200190815260200160002060008282540192505081905550816002600083815260200190815260200160002060006101000a81548173ffffffffffffffffffffffffffffffffffffffff021916908373ffffffffffffffffffffffffffffffffffffffff160217905550808273ffffffffffffffffffffffffffffffffffffffff168473ffffffffffffffffffffffffffffffffffffffff167fddf252ad1be2c89b69c2b068fc378daa952ba7f163c4a11628f55a4df523b3ef60405160405180910390a4611fce83838360016123ee565b505050565b6001816000016000828254019250508190555050565b600081600001549050919050565b6120118282604051806020016040528060008152506123f4565b5050565b61201e826123a7565b61205d576040517f08c379a000000000000000000000000000000000000000000000000000000000815260040161205490613e91565b60405180910390fd5b8060066000848152602001908152602001600020908161207d9190613764565b507ff8e1a15aba9398e019f0b49df1a4fde98ee17ae345cb5f6b5e2c27f5033e8ce7826040516120ad9190612f4f565b60405180910390a15050565b60006002600083815260200190815260200160002060009054906101000a900473ffffffffffffffffffffffffffffffffffffffff169050919050565b8173ffffffffffffffffffffffffffffffffffffffff168373ffffffffffffffffffffffffffffffffffffffff1603612164576040517f08c379a000000000000000000000000000000000000000000000000000000000815260040161215b90613efd565b60405180910390fd5b80600560008573ffffffffffffffffffffffffffffffffffffffff1673ffffffffffffffffffffffffffffffffffffffff16815260200190815260200160002060008473ffffffffffffffffffffffffffffffffffffffff1673ffffffffffffffffffffffffffffffffffffffff16815260200190815260200160002060006101000a81548160ff0219169083151502179055508173ffffffffffffffffffffffffffffffffffffffff168373ffffffffffffffffffffffffffffffffffffffff167f17307eab39ab6107e8899845ad3d59bd9653f200f220920489ca2b5937696c31836040516122559190612b48565b60405180910390a3505050565b61226d848484611cda565b6122798484848461244f565b6122b8576040517f08c379a00000000000000000000000000000000000000000000000000000000081526004016122af90613f8f565b60405180910390fd5b50505050565b606060405180602001604052806000815250905090565b60606122e082611b39565b60006122ea6122be565b9050600081511161230a5760405180602001604052806000815250612335565b80612314846125d6565b604051602001612325929190613cd7565b6040516020818303038152906040525b915050919050565b60007f01ffc9a7000000000000000000000000000000000000000000000000000000007bffffffffffffffffffffffffffffffffffffffffffffffffffffffff1916827bffffffffffffffffffffffffffffffffffffffffffffffffffffffff1916149050919050565b60008073ffffffffffffffffffffffffffffffffffffffff166123c9836120b9565b73ffffffffffffffffffffffffffffffffffffffff1614159050919050565b50505050565b50505050565b6123fe83836126a4565b61240b600084848461244f565b61244a576040517f08c379a000000000000000000000000000000000000000000000000000000000815260040161244190613f8f565b60405180910390fd5b505050565b60006124708473ffffffffffffffffffffffffffffffffffffffff166128c1565b156125c9578373ffffffffffffffffffffffffffffffffffffffff1663150b7a02612499611b84565b8786866040518563ffffffff1660e01b81526004016124bb9493929190614004565b6020604051808303816000875af19250505080156124f757506040513d601f19601f820116820180604052508101906124f49190614065565b60015b612579573d8060008114612527576040519150601f19603f3d011682016040523d82523d6000602084013e61252c565b606091505b506000815103612571576040517f08c379a000000000000000000000000000000000000000000000000000000000815260040161256890613f8f565b60405180910390fd5b805181602001fd5b63150b7a0260e01b7bffffffffffffffffffffffffffffffffffffffffffffffffffffffff1916817bffffffffffffffffffffffffffffffffffffffffffffffffffffffff1916149150506125ce565b600190505b949350505050565b6060600060016125e5846128e4565b01905060008167ffffffffffffffff81111561260457612603612d9d565b5b6040519080825280601f01601f1916602001820160405280156126365781602001600182028036833780820191505090505b509050600082602001820190505b600115612699578080600190039150507f3031323334353637383961626364656600000000000000000000000000000000600a86061a8153600a858161268d5761268c614092565b5b04945060008503612644575b819350505050919050565b600073ffffffffffffffffffffffffffffffffffffffff168273ffffffffffffffffffffffffffffffffffffffff1603612713576040517f08c379a000000000000000000000000000000000000000000000000000000000815260040161270a9061410d565b60405180910390fd5b61271c816123a7565b1561275c576040517f08c379a000000000000000000000000000000000000000000000000000000000815260040161275390614179565b60405180910390fd5b61276a6000838360016123e8565b612773816123a7565b156127b3576040517f08c379a00000000000000000000000000000000000000000000000000000000081526004016127aa90614179565b60405180910390fd5b6001600360008473ffffffffffffffffffffffffffffffffffffffff1673ffffffffffffffffffffffffffffffffffffffff16815260200190815260200160002060008282540192505081905550816002600083815260200190815260200160002060006101000a81548173ffffffffffffffffffffffffffffffffffffffff021916908373ffffffffffffffffffffffffffffffffffffffff160217905550808273ffffffffffffffffffffffffffffffffffffffff16600073ffffffffffffffffffffffffffffffffffffffff167fddf252ad1be2c89b69c2b068fc378daa952ba7f163c4a11628f55a4df523b3ef60405160405180910390a46128bd6000838360016123ee565b5050565b6000808273ffffffffffffffffffffffffffffffffffffffff163b119050919050565b600080600090507a184f03e93ff9f4daa797ed6e38ed64bf6a1f0100000000000000008310612942577a184f03e93ff9f4daa797ed6e38ed64bf6a1f010000000000000000838161293857612937614092565b5b0492506040810190505b6d04ee2d6d415b85acef8100000000831061297f576d04ee2d6d415b85acef8100000000838161297557612974614092565b5b0492506020810190505b662386f26fc1000083106129ae57662386f26fc1000083816129a4576129a3614092565b5b0492506010810190505b6305f5e10083106129d7576305f5e10083816129cd576129cc614092565b5b0492506008810190505b61271083106129fc5761271083816129f2576129f1614092565b5b0492506004810190505b60648310612a1f5760648381612a1557612a14614092565b5b0492506002810190505b600a8310612a2e576001810190505b80915050919050565b6040518060a0016040528060008152602001600073ffffffffffffffffffffffffffffffffffffffff168152602001600073ffffffffffffffffffffffffffffffffffffffff168152602001600081526020016000151581525090565b6000604051905090565b600080fd5b600080fd5b60007fffffffff0000000000000000000000000000000000000000000000000000000082169050919050565b612add81612aa8565b8114612ae857600080fd5b50565b600081359050612afa81612ad4565b92915050565b600060208284031215612b1657612b15612a9e565b5b6000612b2484828501612aeb565b91505092915050565b60008115159050919050565b612b4281612b2d565b82525050565b6000602082019050612b5d6000830184612b39565b92915050565b600081519050919050565b600082825260208201905092915050565b60005b83811015612b9d578082015181840152602081019050612b82565b60008484015250505050565b6000601f19601f8301169050919050565b6000612bc582612b63565b612bcf8185612b6e565b9350612bdf818560208601612b7f565b612be881612ba9565b840191505092915050565b60006020820190508181036000830152612c0d8184612bba565b905092915050565b6000819050919050565b612c2881612c15565b8114612c3357600080fd5b50565b600081359050612c4581612c1f565b92915050565b600060208284031215612c6157612c60612a9e565b5b6000612c6f84828501612c36565b91505092915050565b600073ffffffffffffffffffffffffffffffffffffffff82169050919050565b6000612ca382612c78565b9050919050565b612cb381612c98565b82525050565b6000602082019050612cce6000830184612caa565b92915050565b612cdd81612c98565b8114612ce857600080fd5b50565b600081359050612cfa81612cd4565b92915050565b60008060408385031215612d1757612d16612a9e565b5b6000612d2585828601612ceb565b9250506020612d3685828601612c36565b9150509250929050565b600080600060608486031215612d5957612d58612a9e565b5b6000612d6786828701612ceb565b9350506020612d7886828701612ceb565b9250506040612d8986828701612c36565b9150509250925092565b600080fd5b600080fd5b7f4e487b7100000000000000000000000000000000000000000000000000000000600052604160045260246000fd5b612dd582612ba9565b810181811067ffffffffffffffff82111715612df457612df3612d9d565b5b80604052505050565b6000612e07612a94565b9050612e138282612dcc565b919050565b600067ffffffffffffffff821115612e3357612e32612d9d565b5b612e3c82612ba9565b9050602081019050919050565b82818337600083830152505050565b6000612e6b612e6684612e18565b612dfd565b905082815260208101848484011115612e8757612e86612d98565b5b612e92848285612e49565b509392505050565b600082601f830112612eaf57612eae612d93565b5b8135612ebf848260208601612e58565b91505092915050565b60008060408385031215612edf57612ede612a9e565b5b600083013567ffffffffffffffff811115612efd57612efc612aa3565b5b612f0985828601612e9a565b925050602083013567ffffffffffffffff811115612f2a57612f29612aa3565b5b612f3685828601612e9a565b9150509250929050565b612f4981612c15565b82525050565b6000602082019050612f646000830184612f40565b92915050565b60008060408385031215612f8157612f80612a9e565b5b6000612f8f85828601612c36565b9250506020612fa085828601612c36565b9150509250929050565b600081519050919050565b600082825260208201905092915050565b6000819050602082019050919050565b612fdf81612c15565b82525050565b6000612ff082612c78565b9050919050565b61300081612fe5565b82525050565b61300f81612b2d565b82525050565b60a08201600082015161302b6000850182612fd6565b50602082015161303e6020850182612ff7565b5060408201516130516040850182612ff7565b5060608201516130646060850182612fd6565b5060808201516130776080850182613006565b50505050565b60006130898383613015565b60a08301905092915050565b6000602082019050919050565b60006130ad82612faa565b6130b78185612fb5565b93506130c283612fc6565b8060005b838110156130f35781516130da888261307d565b97506130e583613095565b9250506001810190506130c6565b5085935050505092915050565b6000602082019050818103600083015261311a81846130a2565b905092915050565b60006020828403121561313857613137612a9e565b5b600061314684828501612ceb565b91505092915050565b60a0820160008201516131656000850182612fd6565b5060208201516131786020850182612ff7565b50604082015161318b6040850182612ff7565b50606082015161319e6060850182612fd6565b5060808201516131b16080850182613006565b50505050565b600060a0820190506131cc600083018461314f565b92915050565b6131db81612b2d565b81146131e657600080fd5b50565b6000813590506131f8816131d2565b92915050565b6000806040838503121561321557613214612a9e565b5b600061322385828601612ceb565b9250506020613234858286016131e9565b9150509250929050565b600067ffffffffffffffff82111561325957613258612d9d565b5b61326282612ba9565b9050602081019050919050565b600061328261327d8461323e565b612dfd565b90508281526020810184848401111561329e5761329d612d98565b5b6132a9848285612e49565b509392505050565b600082601f8301126132c6576132c5612d93565b5b81356132d684826020860161326f565b91505092915050565b600080600080608085870312156132f9576132f8612a9e565b5b600061330787828801612ceb565b945050602061331887828801612ceb565b935050604061332987828801612c36565b925050606085013567ffffffffffffffff81111561334a57613349612aa3565b5b613356878288016132b1565b91505092959194509250565b6000806040838503121561337957613378612a9e565b5b600061338785828601612ceb565b925050602061339885828601612ceb565b9150509250929050565b7f4e487b7100000000000000000000000000000000000000000000000000000000600052602260045260246000fd5b600060028204905060018216806133e957607f821691505b6020821081036133fc576133fb6133a2565b5b50919050565b7f4552433732313a20617070726f76616c20746f2063757272656e74206f776e6560008201527f7200000000000000000000000000000000000000000000000000000000000000602082015250565b600061345e602183612b6e565b915061346982613402565b604082019050919050565b6000602082019050818103600083015261348d81613451565b9050919050565b7f4552433732313a20617070726f76652063616c6c6572206973206e6f7420746f60008201527f6b656e206f776e6572206f7220617070726f76656420666f7220616c6c000000602082015250565b60006134f0603d83612b6e565b91506134fb82613494565b604082019050919050565b6000602082019050818103600083015261351f816134e3565b9050919050565b7f4552433732313a2063616c6c6572206973206e6f7420746f6b656e206f776e6560008201527f72206f7220617070726f76656400000000000000000000000000000000000000602082015250565b6000613582602d83612b6e565b915061358d82613526565b604082019050919050565b600060208201905081810360008301526135b181613575565b9050919050565b60008190508160005260206000209050919050565b60006020601f8301049050919050565b600082821b905092915050565b60006008830261361a7fffffffffffffffffffffffffffffffffffffffffffffffffffffffffffffffff826135dd565b61362486836135dd565b95508019841693508086168417925050509392505050565b6000819050919050565b600061366161365c61365784612c15565b61363c565b612c15565b9050919050565b6000819050919050565b61367b83613646565b61368f61368782613668565b8484546135ea565b825550505050565b600090565b6136a4613697565b6136af818484613672565b505050565b5b818110156136d3576136c860008261369c565b6001810190506136b5565b5050565b601f821115613718576136e9816135b8565b6136f2846135cd565b81016020851015613701578190505b61371561370d856135cd565b8301826136b4565b50505b505050565b600082821c905092915050565b600061373b6000198460080261371d565b1980831691505092915050565b6000613754838361372a565b9150826002028217905092915050565b61376d82612b63565b67ffffffffffffffff81111561378657613785612d9d565b5b61379082546133d1565b61379b8282856136d7565b600060209050601f8311600181146137ce57600084156137bc578287015190505b6137c68582613748565b86555061382e565b601f1984166137dc866135b8565b60005b82811015613804578489015182556001820191506020850194506020810190506137df565b86831015613821578489015161381d601f89168261372a565b8355505b6001600288020188555050505b505050505050565b7f486f706566756c6c792073656e64696e672074686520636f727265637420707260008201527f6963650000000000000000000000000000000000000000000000000000000000602082015250565b6000613892602383612b6e565b915061389d82613836565b604082019050919050565b600060208201905081810360008301526138c181613885565b9050919050565b7f4d616b652073757265207468652070726963652069736e2774206e656761746960008201527f7665000000000000000000000000000000000000000000000000000000000000602082015250565b6000613924602283612b6e565b915061392f826138c8565b604082019050919050565b6000602082019050818103600083015261395381613917565b9050919050565b600060808201905061396f6000830187612caa565b61397c6020830186612caa565b6139896040830185612f40565b6139966060830184612b39565b95945050505050565b7f4e487b7100000000000000000000000000000000000000000000000000000000600052601160045260246000fd5b60006139d982612c15565b91506139e483612c15565b92508282019050808211156139fc576139fb61399f565b5b92915050565b6000613a0d82612c15565b91507fffffffffffffffffffffffffffffffffffffffffffffffffffffffffffffffff8203613a3f57613a3e61399f565b5b600182019050919050565b7f4e487b7100000000000000000000000000000000000000000000000000000000600052603260045260246000fd5b7f4552433732313a20696e76616c696420746f6b656e2049440000000000000000600082015250565b6000613aaf601883612b6e565b9150613aba82613a79565b602082019050919050565b60006020820190508181036000830152613ade81613aa2565b9050919050565b7f4552433732313a2061646472657373207a65726f206973206e6f74206120766160008201527f6c6964206f776e65720000000000000000000000000000000000000000000000602082015250565b6000613b41602983612b6e565b9150613b4c82613ae5565b604082019050919050565b60006020820190508181036000830152613b7081613b34565b9050919050565b7f506c65617365207375626d6974207468652061736b696e67207072696365206960008201527f6e206f7264657220746f20636f6d706c65746520746865207075726368617365602082015250565b6000613bd3604083612b6e565b9150613bde82613b77565b604082019050919050565b60006020820190508181036000830152613c0281613bc6565b9050919050565b7f4f6e6c79206f776e65722063616e20757064617465206c697374696e6720707260008201527f6963650000000000000000000000000000000000000000000000000000000000602082015250565b6000613c65602383612b6e565b9150613c7082613c09565b604082019050919050565b60006020820190508181036000830152613c9481613c58565b9050919050565b600081905092915050565b6000613cb182612b63565b613cbb8185613c9b565b9350613ccb818560208601612b7f565b80840191505092915050565b6000613ce38285613ca6565b9150613cef8284613ca6565b91508190509392505050565b7f4552433732313a207472616e736665722066726f6d20696e636f72726563742060008201527f6f776e6572000000000000000000000000000000000000000000000000000000602082015250565b6000613d57602583612b6e565b9150613d6282613cfb565b604082019050919050565b60006020820190508181036000830152613d8681613d4a565b9050919050565b7f4552433732313a207472616e7366657220746f20746865207a65726f2061646460008201527f7265737300000000000000000000000000000000000000000000000000000000602082015250565b6000613de9602483612b6e565b9150613df482613d8d565b604082019050919050565b60006020820190508181036000830152613e1881613ddc565b9050919050565b7f45524337323155524953746f726167653a2055524920736574206f66206e6f6e60008201527f6578697374656e7420746f6b656e000000000000000000000000000000000000602082015250565b6000613e7b602e83612b6e565b9150613e8682613e1f565b604082019050919050565b60006020820190508181036000830152613eaa81613e6e565b9050919050565b7f4552433732313a20617070726f766520746f2063616c6c657200000000000000600082015250565b6000613ee7601983612b6e565b9150613ef282613eb1565b602082019050919050565b60006020820190508181036000830152613f1681613eda565b9050919050565b7f4552433732313a207472616e7366657220746f206e6f6e20455243373231526560008201527f63656976657220696d706c656d656e7465720000000000000000000000000000602082015250565b6000613f79603283612b6e565b9150613f8482613f1d565b604082019050919050565b60006020820190508181036000830152613fa881613f6c565b9050919050565b600081519050919050565b600082825260208201905092915050565b6000613fd682613faf565b613fe08185613fba565b9350613ff0818560208601612b7f565b613ff981612ba9565b840191505092915050565b60006080820190506140196000830187612caa565b6140266020830186612caa565b6140336040830185612f40565b81810360608301526140458184613fcb565b905095945050505050565b60008151905061405f81612ad4565b92915050565b60006020828403121561407b5761407a612a9e565b5b600061408984828501614050565b91505092915050565b7f4e487b7100000000000000000000000000000000000000000000000000000000600052601260045260246000fd5b7f4552433732313a206d696e7420746f20746865207a65726f2061646472657373600082015250565b60006140f7602083612b6e565b9150614102826140c1565b602082019050919050565b60006020820190508181036000830152614126816140ea565b9050919050565b7f4552433732313a20746f6b656e20616c7265616479206d696e74656400000000600082015250565b6000614163601c83612b6e565b915061416e8261412d565b602082019050919050565b6000602082019050818103600083015261419281614156565b905091905056fea2646970667358221220da2e4f2d372ced9f8d3155942d9401a2d8058bd64ca2b9b7ee6d95468b51d69964736f6c63430008120033",
  "linkReferences": {},
  "deployedLinkReferences": {}
}