{
  "address": "0x5FbDB2315678afecb367f032d93F642f64180aa3",
  "_format": "hh-sol-artifact-1",
  "contractName": "NFTMarketplace",
  "sourceName": "contracts/NFTMarketplace.sol",
  "abi": [
    {
      "inputs": [],
      "stateMutability": "nonpayable",
      "type": "constructor"
    },
    {
      "anonymous": false,
      "inputs": [
        {
          "indexed": true,
          "internalType": "address",
          "name": "owner",
          "type": "address"
        },
        {
          "indexed": true,
          "internalType": "address",
          "name": "approved",
          "type": "address"
        },
        {
          "indexed": true,
          "internalType": "uint256",
          "name": "tokenId",
          "type": "uint256"
        }
      ],
      "name": "Approval",
      "type": "event"
    },
    {
      "anonymous": false,
      "inputs": [
        {
          "indexed": true,
          "internalType": "address",
          "name": "owner",
          "type": "address"
        },
        {
          "indexed": true,
          "internalType": "address",
          "name": "operator",
          "type": "address"
        },
        {
          "indexed": false,
          "internalType": "bool",
          "name": "approved",
          "type": "bool"
        }
      ],
      "name": "ApprovalForAll",
      "type": "event"
    },
    {
      "anonymous": false,
      "inputs": [
        {
          "indexed": true,
          "internalType": "uint256",
          "name": "tokenId",
          "type": "uint256"
        },
        {
          "indexed": false,
          "internalType": "address",
          "name": "owner",
          "type": "address"
        },
        {
          "indexed": false,
          "internalType": "address",
          "name": "winner",
          "type": "address"
        },
        {
          "indexed": false,
          "internalType": "uint256",
          "name": "winningBid",
          "type": "uint256"
        }
      ],
      "name": "AuctionEnded",
      "type": "event"
    },
    {
      "anonymous": false,
      "inputs": [
        {
          "indexed": true,
          "internalType": "uint256",
          "name": "tokenId",
          "type": "uint256"
        },
        {
          "indexed": false,
          "internalType": "address",
          "name": "owner",
          "type": "address"
        },
        {
          "indexed": false,
          "internalType": "address",
          "name": "seller",
          "type": "address"
        },
        {
          "indexed": false,
          "internalType": "uint256",
          "name": "startingPrice",
          "type": "uint256"
        },
        {
          "indexed": false,
          "internalType": "uint256",
          "name": "auctionEndTime",
          "type": "uint256"
        }
      ],
      "name": "AuctionStarted",
      "type": "event"
    },
    {
      "anonymous": false,
      "inputs": [
        {
          "indexed": false,
          "internalType": "uint256",
          "name": "_fromTokenId",
          "type": "uint256"
        },
        {
          "indexed": false,
          "internalType": "uint256",
          "name": "_toTokenId",
          "type": "uint256"
        }
      ],
      "name": "BatchMetadataUpdate",
      "type": "event"
    },
    {
      "anonymous": false,
      "inputs": [
        {
          "indexed": true,
          "internalType": "uint256",
          "name": "tokenId",
          "type": "uint256"
        },
        {
          "indexed": false,
          "internalType": "address",
          "name": "bidder",
          "type": "address"
        },
        {
          "indexed": false,
          "internalType": "uint256",
          "name": "bidAmount",
          "type": "uint256"
        }
      ],
      "name": "BidPlaced",
      "type": "event"
    },
    {
      "anonymous": false,
      "inputs": [
        {
          "indexed": false,
          "internalType": "uint256",
          "name": "_tokenId",
          "type": "uint256"
        }
      ],
      "name": "MetadataUpdate",
      "type": "event"
    },
    {
      "anonymous": false,
      "inputs": [
        {
          "indexed": true,
          "internalType": "uint256",
          "name": "tokenId",
          "type": "uint256"
        },
        {
          "indexed": false,
          "internalType": "address",
          "name": "owner",
          "type": "address"
        },
        {
          "indexed": false,
          "internalType": "address",
          "name": "seller",
          "type": "address"
        },
        {
          "indexed": false,
          "internalType": "uint256",
          "name": "price",
          "type": "uint256"
        },
        {
          "indexed": false,
          "internalType": "bool",
          "name": "currentlyListed",
          "type": "bool"
        }
      ],
      "name": "TokenListedSuccess",
      "type": "event"
    },
    {
      "anonymous": false,
      "inputs": [
        {
          "indexed": true,
          "internalType": "address",
          "name": "from",
          "type": "address"
        },
        {
          "indexed": true,
          "internalType": "address",
          "name": "to",
          "type": "address"
        },
        {
          "indexed": true,
          "internalType": "uint256",
          "name": "tokenId",
          "type": "uint256"
        }
      ],
      "name": "Transfer",
      "type": "event"
    },
    {
      "inputs": [
        {
          "internalType": "address",
          "name": "to",
          "type": "address"
        },
        {
          "internalType": "uint256",
          "name": "tokenId",
          "type": "uint256"
        }
      ],
      "name": "approve",
      "outputs": [],
      "stateMutability": "nonpayable",
      "type": "function"
    },
    {
      "inputs": [
        {
          "internalType": "address",
          "name": "owner",
          "type": "address"
        }
      ],
      "name": "balanceOf",
      "outputs": [
        {
          "internalType": "uint256",
          "name": "",
          "type": "uint256"
        }
      ],
      "stateMutability": "view",
      "type": "function"
    },
    {
      "inputs": [
        {
          "internalType": "uint256",
          "name": "tokenId",
          "type": "uint256"
        },
        {
          "internalType": "uint256",
          "name": "price",
          "type": "uint256"
        }
      ],
      "name": "createListedToken",
      "outputs": [],
      "stateMutability": "payable",
      "type": "function"
    },
    {
      "inputs": [
        {
          "internalType": "string",
          "name": "tokenURI",
          "type": "string"
        },
        {
          "internalType": "string",
          "name": "_name",
          "type": "string"
        }
      ],
      "name": "createToken",
      "outputs": [
        {
          "internalType": "uint256",
          "name": "",
          "type": "uint256"
        }
      ],
      "stateMutability": "payable",
      "type": "function"
    },
    {
      "inputs": [
        {
          "internalType": "uint256",
          "name": "tokenId",
          "type": "uint256"
        }
      ],
      "name": "endAuction",
      "outputs": [],
      "stateMutability": "nonpayable",
      "type": "function"
    },
    {
      "inputs": [
        {
          "internalType": "uint256",
          "name": "tokenId",
          "type": "uint256"
        }
      ],
      "name": "executeSale",
      "outputs": [],
      "stateMutability": "payable",
      "type": "function"
    },
    {
      "inputs": [],
      "name": "getAllNFTs",
      "outputs": [
        {
          "components": [
            {
              "internalType": "uint256",
              "name": "tokenId",
              "type": "uint256"
            },
            {
              "internalType": "address payable",
              "name": "owner",
              "type": "address"
            },
            {
              "internalType": "address payable",
              "name": "seller",
              "type": "address"
            },
            {
              "internalType": "uint256",
              "name": "price",
              "type": "uint256"
            },
            {
              "internalType": "bool",
              "name": "currentlyListed",
              "type": "bool"
            },
            {
              "internalType": "bool",
              "name": "isOnAuction",
              "type": "bool"
            },
            {
              "internalType": "uint256",
              "name": "auctionEndTime",
              "type": "uint256"
            },
            {
              "internalType": "address",
              "name": "highestBidder",
              "type": "address"
            },
            {
              "internalType": "uint256",
              "name": "highestBid",
              "type": "uint256"
            }
          ],
          "internalType": "struct NFTMarketplace.ListedToken[]",
          "name": "",
          "type": "tuple[]"
        }
      ],
      "stateMutability": "view",
      "type": "function"
    },
    {
      "inputs": [
        {
          "internalType": "uint256",
          "name": "tokenId",
          "type": "uint256"
        }
      ],
      "name": "getApproved",
      "outputs": [
        {
          "internalType": "address",
          "name": "",
          "type": "address"
        }
      ],
      "stateMutability": "view",
      "type": "function"
    },
    {
      "inputs": [],
      "name": "getCurrentToken",
      "outputs": [
        {
          "internalType": "uint256",
          "name": "",
          "type": "uint256"
        }
      ],
      "stateMutability": "view",
      "type": "function"
    },
    {
      "inputs": [
        {
          "internalType": "uint256",
          "name": "tokenId",
          "type": "uint256"
        }
      ],
      "name": "getHighestBidder",
      "outputs": [
        {
          "internalType": "address",
          "name": "",
          "type": "address"
        }
      ],
      "stateMutability": "view",
      "type": "function"
    },
    {
      "inputs": [],
      "name": "getLatestIdToListedToken",
      "outputs": [
        {
          "components": [
            {
              "internalType": "uint256",
              "name": "tokenId",
              "type": "uint256"
            },
            {
              "internalType": "address payable",
              "name": "owner",
              "type": "address"
            },
            {
              "internalType": "address payable",
              "name": "seller",
              "type": "address"
            },
            {
              "internalType": "uint256",
              "name": "price",
              "type": "uint256"
            },
            {
              "internalType": "bool",
              "name": "currentlyListed",
              "type": "bool"
            },
            {
              "internalType": "bool",
              "name": "isOnAuction",
              "type": "bool"
            },
            {
              "internalType": "uint256",
              "name": "auctionEndTime",
              "type": "uint256"
            },
            {
              "internalType": "address",
              "name": "highestBidder",
              "type": "address"
            },
            {
              "internalType": "uint256",
              "name": "highestBid",
              "type": "uint256"
            }
          ],
          "internalType": "struct NFTMarketplace.ListedToken",
          "name": "",
          "type": "tuple"
        }
      ],
      "stateMutability": "view",
      "type": "function"
    },
    {
      "inputs": [],
      "name": "getListPrice",
      "outputs": [
        {
          "internalType": "uint256",
          "name": "",
          "type": "uint256"
        }
      ],
      "stateMutability": "view",
      "type": "function"
    },
    {
      "inputs": [
        {
          "internalType": "uint256",
          "name": "tokenId",
          "type": "uint256"
        }
      ],
      "name": "getListedTokenForId",
      "outputs": [
        {
          "components": [
            {
              "internalType": "uint256",
              "name": "tokenId",
              "type": "uint256"
            },
            {
              "internalType": "address payable",
              "name": "owner",
              "type": "address"
            },
            {
              "internalType": "address payable",
              "name": "seller",
              "type": "address"
            },
            {
              "internalType": "uint256",
              "name": "price",
              "type": "uint256"
            },
            {
              "internalType": "bool",
              "name": "currentlyListed",
              "type": "bool"
            },
            {
              "internalType": "bool",
              "name": "isOnAuction",
              "type": "bool"
            },
            {
              "internalType": "uint256",
              "name": "auctionEndTime",
              "type": "uint256"
            },
            {
              "internalType": "address",
              "name": "highestBidder",
              "type": "address"
            },
            {
              "internalType": "uint256",
              "name": "highestBid",
              "type": "uint256"
            }
          ],
          "internalType": "struct NFTMarketplace.ListedToken",
          "name": "",
          "type": "tuple"
        }
      ],
      "stateMutability": "view",
      "type": "function"
    },
    {
      "inputs": [],
      "name": "getMyNFTs",
      "outputs": [
        {
          "components": [
            {
              "internalType": "uint256",
              "name": "tokenId",
              "type": "uint256"
            },
            {
              "internalType": "address payable",
              "name": "owner",
              "type": "address"
            },
            {
              "internalType": "address payable",
              "name": "seller",
              "type": "address"
            },
            {
              "internalType": "uint256",
              "name": "price",
              "type": "uint256"
            },
            {
              "internalType": "bool",
              "name": "currentlyListed",
              "type": "bool"
            },
            {
              "internalType": "bool",
              "name": "isOnAuction",
              "type": "bool"
            },
            {
              "internalType": "uint256",
              "name": "auctionEndTime",
              "type": "uint256"
            },
            {
              "internalType": "address",
              "name": "highestBidder",
              "type": "address"
            },
            {
              "internalType": "uint256",
              "name": "highestBid",
              "type": "uint256"
            }
          ],
          "internalType": "struct NFTMarketplace.ListedToken[]",
          "name": "",
          "type": "tuple[]"
        }
      ],
      "stateMutability": "view",
      "type": "function"
    },
    {
      "inputs": [
        {
          "internalType": "address",
          "name": "owner",
          "type": "address"
        },
        {
          "internalType": "address",
          "name": "operator",
          "type": "address"
        }
      ],
      "name": "isApprovedForAll",
      "outputs": [
        {
          "internalType": "bool",
          "name": "",
          "type": "bool"
        }
      ],
      "stateMutability": "view",
      "type": "function"
    },
    {
      "inputs": [],
      "name": "name",
      "outputs": [
        {
          "internalType": "string",
          "name": "",
          "type": "string"
        }
      ],
      "stateMutability": "view",
      "type": "function"
    },
    {
      "inputs": [
        {
          "internalType": "uint256",
          "name": "tokenId",
          "type": "uint256"
        }
      ],
      "name": "ownerOf",
      "outputs": [
        {
          "internalType": "address",
          "name": "",
          "type": "address"
        }
      ],
      "stateMutability": "view",
      "type": "function"
    },
    {
      "inputs": [
        {
          "internalType": "uint256",
          "name": "tokenId",
          "type": "uint256"
        }
      ],
      "name": "placeBid",
      "outputs": [],
      "stateMutability": "payable",
      "type": "function"
    },
    {
      "inputs": [
        {
          "internalType": "address",
          "name": "from",
          "type": "address"
        },
        {
          "internalType": "address",
          "name": "to",
          "type": "address"
        },
        {
          "internalType": "uint256",
          "name": "tokenId",
          "type": "uint256"
        }
      ],
      "name": "safeTransferFrom",
      "outputs": [],
      "stateMutability": "nonpayable",
      "type": "function"
    },
    {
      "inputs": [
        {
          "internalType": "address",
          "name": "from",
          "type": "address"
        },
        {
          "internalType": "address",
          "name": "to",
          "type": "address"
        },
        {
          "internalType": "uint256",
          "name": "tokenId",
          "type": "uint256"
        },
        {
          "internalType": "bytes",
          "name": "data",
          "type": "bytes"
        }
      ],
      "name": "safeTransferFrom",
      "outputs": [],
      "stateMutability": "nonpayable",
      "type": "function"
    },
    {
      "inputs": [
        {
          "internalType": "address",
          "name": "operator",
          "type": "address"
        },
        {
          "internalType": "bool",
          "name": "approved",
          "type": "bool"
        }
      ],
      "name": "setApprovalForAll",
      "outputs": [],
      "stateMutability": "nonpayable",
      "type": "function"
    },
    {
      "inputs": [
        {
          "internalType": "uint256",
          "name": "tokenId",
          "type": "uint256"
        },
        {
          "internalType": "uint256",
          "name": "startingPrice",
          "type": "uint256"
        },
        {
          "internalType": "uint256",
          "name": "duration",
          "type": "uint256"
        }
      ],
      "name": "startAuction",
      "outputs": [],
      "stateMutability": "nonpayable",
      "type": "function"
    },
    {
      "inputs": [
        {
          "internalType": "bytes4",
          "name": "interfaceId",
          "type": "bytes4"
        }
      ],
      "name": "supportsInterface",
      "outputs": [
        {
          "internalType": "bool",
          "name": "",
          "type": "bool"
        }
      ],
      "stateMutability": "view",
      "type": "function"
    },
    {
      "inputs": [],
      "name": "symbol",
      "outputs": [
        {
          "internalType": "string",
          "name": "",
          "type": "string"
        }
      ],
      "stateMutability": "view",
      "type": "function"
    },
    {
      "inputs": [
        {
          "internalType": "uint256",
          "name": "tokenId",
          "type": "uint256"
        }
      ],
      "name": "tokenURI",
      "outputs": [
        {
          "internalType": "string",
          "name": "",
          "type": "string"
        }
      ],
      "stateMutability": "view",
      "type": "function"
    },
    {
      "inputs": [
        {
          "internalType": "address",
          "name": "from",
          "type": "address"
        },
        {
          "internalType": "address",
          "name": "to",
          "type": "address"
        },
        {
          "internalType": "uint256",
          "name": "tokenId",
          "type": "uint256"
        }
      ],
      "name": "transferFrom",
      "outputs": [],
      "stateMutability": "nonpayable",
      "type": "function"
    },
    {
      "inputs": [
        {
          "internalType": "uint256",
          "name": "_listPrice",
          "type": "uint256"
        }
      ],
      "name": "updateListPrice",
      "outputs": [],
      "stateMutability": "payable",
      "type": "function"
    }
  ],
  "bytecode": "0x6080604052662386f26fc10000600b553480156200001c57600080fd5b506040518060400160405280600a81526020017f426c75654d61726b6574000000000000000000000000000000000000000000008152506040518060400160405280600481526020017f424d524b0000000000000000000000000000000000000000000000000000000081525081600090816200009a919062000370565b508060019081620000ac919062000370565b50505033600960006101000a81548173ffffffffffffffffffffffffffffffffffffffff021916908373ffffffffffffffffffffffffffffffffffffffff16021790555062000457565b600081519050919050565b7f4e487b7100000000000000000000000000000000000000000000000000000000600052604160045260246000fd5b7f4e487b7100000000000000000000000000000000000000000000000000000000600052602260045260246000fd5b600060028204905060018216806200017857607f821691505b6020821081036200018e576200018d62000130565b5b50919050565b60008190508160005260206000209050919050565b60006020601f8301049050919050565b600082821b905092915050565b600060088302620001f87fffffffffffffffffffffffffffffffffffffffffffffffffffffffffffffffff82620001b9565b620002048683620001b9565b95508019841693508086168417925050509392505050565b6000819050919050565b6000819050919050565b6000620002516200024b62000245846200021c565b62000226565b6200021c565b9050919050565b6000819050919050565b6200026d8362000230565b620002856200027c8262000258565b848454620001c6565b825550505050565b600090565b6200029c6200028d565b620002a981848462000262565b505050565b5b81811015620002d157620002c560008262000292565b600181019050620002af565b5050565b601f8211156200032057620002ea8162000194565b620002f584620001a9565b8101602085101562000305578190505b6200031d6200031485620001a9565b830182620002ae565b50505b505050565b600082821c905092915050565b6000620003456000198460080262000325565b1980831691505092915050565b600062000360838362000332565b9150826002028217905092915050565b6200037b82620000f6565b67ffffffffffffffff81111562000397576200039662000101565b5b620003a382546200015f565b620003b0828285620002d5565b600060209050601f831160018114620003e85760008415620003d3578287015190505b620003df858262000352565b8655506200044f565b601f198416620003f88662000194565b60005b828110156200042257848901518255600182019150602085019450602081019050620003fb565b868310156200044257848901516200043e601f89168262000332565b8355505b6001600288020188555050505b505050505050565b61544780620004676000396000f3fe60806040526004361061019c5760003560e01c806391e078bb116100ec578063c322579c1161008a578063d1a88ae511610064578063d1a88ae5146105b7578063e0391b09146105e2578063e985e9c51461060d578063ef2d17461461064a5761019c565b8063c322579c14610521578063c750cb791461053d578063c87b56dd1461057a5761019c565b80639b1225c4116100c65780639b1225c41461048a578063a22cb465146104a6578063b88d4fde146104cf578063b9a2de3a146104f85761019c565b806391e078bb1461041a57806395d89b41146104435780639979ef451461046e5761019c565b806342842e0e116101595780636352211e116101335780636352211e1461033857806368f1945f1461037557806370a08231146103a05780638e264590146103dd5761019c565b806342842e0e146102c857806355524f56146102f1578063629cb2e41461030d5761019c565b806301ffc9a7146101a157806306fdde03146101de578063081812fc14610209578063095ea7b31461024657806323b872dd1461026f5780632f2f2d5614610298575b600080fd5b3480156101ad57600080fd5b506101c860048036038101906101c39190613784565b610675565b6040516101d591906137cc565b60405180910390f35b3480156101ea57600080fd5b506101f36106d6565b6040516102009190613877565b60405180910390f35b34801561021557600080fd5b50610230600480360381019061022b91906138cf565b610768565b60405161023d919061393d565b60405180910390f35b34801561025257600080fd5b5061026d60048036038101906102689190613984565b6107ae565b005b34801561027b57600080fd5b50610296600480360381019061029191906139c4565b6108c5565b005b6102b260048036038101906102ad9190613b4c565b610925565b6040516102bf9190613bd3565b60405180910390f35b3480156102d457600080fd5b506102ef60048036038101906102ea91906139c4565b610b88565b005b61030b60048036038101906103069190613bee565b610ba8565b005b34801561031957600080fd5b50610322610e5c565b60405161032f9190613de3565b60405180910390f35b34801561034457600080fd5b5061035f600480360381019061035a91906138cf565b6112c3565b60405161036c919061393d565b60405180910390f35b34801561038157600080fd5b5061038a611349565b6040516103979190613bd3565b60405180910390f35b3480156103ac57600080fd5b506103c760048036038101906103c29190613e05565b611353565b6040516103d49190613bd3565b60405180910390f35b3480156103e957600080fd5b5061040460048036038101906103ff91906138cf565b61140a565b6040516104119190613ee9565b60405180910390f35b34801561042657600080fd5b50610441600480360381019061043c9190613f05565b611598565b005b34801561044f57600080fd5b506104586117de565b6040516104659190613877565b60405180910390f35b610488600480360381019061048391906138cf565b611870565b005b6104a4600480360381019061049f91906138cf565b611b78565b005b3480156104b257600080fd5b506104cd60048036038101906104c89190613f84565b611d6a565b005b3480156104db57600080fd5b506104f660048036038101906104f19190614065565b611d80565b005b34801561050457600080fd5b5061051f600480360381019061051a91906138cf565b611de2565b005b61053b600480360381019061053691906138cf565b612022565b005b34801561054957600080fd5b50610564600480360381019061055f91906138cf565b6120bc565b604051610571919061393d565b60405180910390f35b34801561058657600080fd5b506105a1600480360381019061059c91906138cf565b6120fc565b6040516105ae9190613877565b60405180910390f35b3480156105c357600080fd5b506105cc61220e565b6040516105d99190613ee9565b60405180910390f35b3480156105ee57600080fd5b506105f76123a9565b6040516106049190613de3565b60405180910390f35b34801561061957600080fd5b50610634600480360381019061062f91906140e8565b612601565b60405161064191906137cc565b60405180910390f35b34801561065657600080fd5b5061065f612695565b60405161066c9190613bd3565b60405180910390f35b6000634906490660e01b7bffffffffffffffffffffffffffffffffffffffffffffffffffffffff1916827bffffffffffffffffffffffffffffffffffffffffffffffffffffffff191614806106cf57506106ce826126a6565b5b9050919050565b6060600080546106e590614157565b80601f016020809104026020016040519081016040528092919081815260200182805461071190614157565b801561075e5780601f106107335761010080835404028352916020019161075e565b820191906000526020600020905b81548152906001019060200180831161074157829003601f168201915b5050505050905090565b600061077382612788565b6004600083815260200190815260200160002060009054906101000a900473ffffffffffffffffffffffffffffffffffffffff169050919050565b60006107b9826112c3565b90508073ffffffffffffffffffffffffffffffffffffffff168373ffffffffffffffffffffffffffffffffffffffff1603610829576040517f08c379a0000000000000000000000000000000000000000000000000000000008152600401610820906141fa565b60405180910390fd5b8073ffffffffffffffffffffffffffffffffffffffff166108486127d3565b73ffffffffffffffffffffffffffffffffffffffff1614806108775750610876816108716127d3565b612601565b5b6108b6576040517f08c379a00000000000000000000000000000000000000000000000000000000081526004016108ad9061428c565b60405180910390fd5b6108c083836127db565b505050565b6108d66108d06127d3565b82612894565b610915576040517f08c379a000000000000000000000000000000000000000000000000000000000815260040161090c9061431e565b60405180910390fd5b610920838383612929565b505050565b60006109316007612c22565b600061093d6007612c38565b90506109493382612c46565b6109538185612c64565b6040518061012001604052808281526020013373ffffffffffffffffffffffffffffffffffffffff1681526020013373ffffffffffffffffffffffffffffffffffffffff1681526020016000815260200160001515815260200160001515815260200160008152602001600073ffffffffffffffffffffffffffffffffffffffff1681526020016000815250600c60008381526020019081526020016000206000820151816000015560208201518160010160006101000a81548173ffffffffffffffffffffffffffffffffffffffff021916908373ffffffffffffffffffffffffffffffffffffffff16021790555060408201518160020160006101000a81548173ffffffffffffffffffffffffffffffffffffffff021916908373ffffffffffffffffffffffffffffffffffffffff1602179055506060820151816003015560808201518160040160006101000a81548160ff02191690831515021790555060a08201518160040160016101000a81548160ff02191690831515021790555060c0820151816005015560e08201518160060160006101000a81548173ffffffffffffffffffffffffffffffffffffffff021916908373ffffffffffffffffffffffffffffffffffffffff1602179055506101008201518160070155905050604051806040016040528082815260200184815250600d6000838152602001908152602001600020600082015181600001556020820151816001019081610b7a91906144ea565b509050508091505092915050565b610ba383838360405180602001604052806000815250611d80565b505050565b600b543414610bec576040517f08c379a0000000000000000000000000000000000000000000000000000000008152600401610be39061462e565b60405180910390fd5b60008111610c2f576040517f08c379a0000000000000000000000000000000000000000000000000000000008152600401610c26906146c0565b60405180910390fd5b6040518061012001604052808381526020013073ffffffffffffffffffffffffffffffffffffffff1681526020013373ffffffffffffffffffffffffffffffffffffffff16815260200182815260200160011515815260200160001515815260200160008152602001600073ffffffffffffffffffffffffffffffffffffffff1681526020016000815250600c60008481526020019081526020016000206000820151816000015560208201518160010160006101000a81548173ffffffffffffffffffffffffffffffffffffffff021916908373ffffffffffffffffffffffffffffffffffffffff16021790555060408201518160020160006101000a81548173ffffffffffffffffffffffffffffffffffffffff021916908373ffffffffffffffffffffffffffffffffffffffff1602179055506060820151816003015560808201518160040160006101000a81548160ff02191690831515021790555060a08201518160040160016101000a81548160ff02191690831515021790555060c0820151816005015560e08201518160060160006101000a81548173ffffffffffffffffffffffffffffffffffffffff021916908373ffffffffffffffffffffffffffffffffffffffff1602179055506101008201518160070155905050610e19333084612929565b817f9339409317fd01fabff48b703019016f49159bacc801ae872d2ca637d226e4c03033846001604051610e5094939291906146e0565b60405180910390a25050565b60606000610e6a6007612c38565b9050600080600080600090505b84811015610f90573373ffffffffffffffffffffffffffffffffffffffff16600c6000600184610ea79190614754565b815260200190815260200160002060010160009054906101000a900473ffffffffffffffffffffffffffffffffffffffff1673ffffffffffffffffffffffffffffffffffffffff161480610f6857503373ffffffffffffffffffffffffffffffffffffffff16600c6000600184610f1e9190614754565b815260200190815260200160002060020160009054906101000a900473ffffffffffffffffffffffffffffffffffffffff1673ffffffffffffffffffffffffffffffffffffffff16145b15610f7d57600184610f7a9190614754565b93505b8080610f8890614788565b915050610e77565b5060008367ffffffffffffffff811115610fad57610fac613a21565b5b604051908082528060200260200182016040528015610fe657816020015b610fd3613686565b815260200190600190039081610fcb5790505b50905060005b858110156112b7573373ffffffffffffffffffffffffffffffffffffffff16600c600060018461101c9190614754565b815260200190815260200160002060010160009054906101000a900473ffffffffffffffffffffffffffffffffffffffff1673ffffffffffffffffffffffffffffffffffffffff1614806110dd57503373ffffffffffffffffffffffffffffffffffffffff16600c60006001846110939190614754565b815260200190815260200160002060020160009054906101000a900473ffffffffffffffffffffffffffffffffffffffff1673ffffffffffffffffffffffffffffffffffffffff16145b156112a4576001816110ef9190614754565b92506000600c600085815260200190815260200160002090508060405180610120016040529081600082015481526020016001820160009054906101000a900473ffffffffffffffffffffffffffffffffffffffff1673ffffffffffffffffffffffffffffffffffffffff1673ffffffffffffffffffffffffffffffffffffffff1681526020016002820160009054906101000a900473ffffffffffffffffffffffffffffffffffffffff1673ffffffffffffffffffffffffffffffffffffffff1673ffffffffffffffffffffffffffffffffffffffff168152602001600382015481526020016004820160009054906101000a900460ff161515151581526020016004820160019054906101000a900460ff16151515158152602001600582015481526020016006820160009054906101000a900473ffffffffffffffffffffffffffffffffffffffff1673ffffffffffffffffffffffffffffffffffffffff1673ffffffffffffffffffffffffffffffffffffffff168152602001600782015481525050838681518110611288576112876147d0565b5b60200260200101819052506001856112a09190614754565b9450505b80806112af90614788565b915050610fec565b50809550505050505090565b6000806112cf83612d08565b9050600073ffffffffffffffffffffffffffffffffffffffff168173ffffffffffffffffffffffffffffffffffffffff1603611340576040517f08c379a00000000000000000000000000000000000000000000000000000000081526004016113379061484b565b60405180910390fd5b80915050919050565b6000600b54905090565b60008073ffffffffffffffffffffffffffffffffffffffff168273ffffffffffffffffffffffffffffffffffffffff16036113c3576040517f08c379a00000000000000000000000000000000000000000000000000000000081526004016113ba906148dd565b60405180910390fd5b600360008373ffffffffffffffffffffffffffffffffffffffff1673ffffffffffffffffffffffffffffffffffffffff168152602001908152602001600020549050919050565b611412613686565b600c600083815260200190815260200160002060405180610120016040529081600082015481526020016001820160009054906101000a900473ffffffffffffffffffffffffffffffffffffffff1673ffffffffffffffffffffffffffffffffffffffff1673ffffffffffffffffffffffffffffffffffffffff1681526020016002820160009054906101000a900473ffffffffffffffffffffffffffffffffffffffff1673ffffffffffffffffffffffffffffffffffffffff1673ffffffffffffffffffffffffffffffffffffffff168152602001600382015481526020016004820160009054906101000a900460ff161515151581526020016004820160019054906101000a900460ff16151515158152602001600582015481526020016006820160009054906101000a900473ffffffffffffffffffffffffffffffffffffffff1673ffffffffffffffffffffffffffffffffffffffff1673ffffffffffffffffffffffffffffffffffffffff1681526020016007820154815250509050919050565b3373ffffffffffffffffffffffffffffffffffffffff166115b8846112c3565b73ffffffffffffffffffffffffffffffffffffffff161461160e576040517f08c379a00000000000000000000000000000000000000000000000000000000081526004016116059061496f565b60405180910390fd5b600c600084815260200190815260200160002060040160019054906101000a900460ff1615611672576040517f08c379a0000000000000000000000000000000000000000000000000000000008152600401611669906149db565b60405180910390fd5b600081116116b5576040517f08c379a00000000000000000000000000000000000000000000000000000000081526004016116ac90614a6d565b60405180910390fd5b6001600c600085815260200190815260200160002060040160016101000a81548160ff02191690831515021790555080426116f09190614754565b600c60008581526020019081526020016000206005018190555033600c600085815260200190815260200160002060020160006101000a81548173ffffffffffffffffffffffffffffffffffffffff021916908373ffffffffffffffffffffffffffffffffffffffff16021790555081600c600085815260200190815260200160002060030181905550611785333085612929565b827f3ed4e40af7bb642d2987461105fb1c1c8bb984fe6f41d0c694e7f727cb5b41be333385600c6000898152602001908152602001600020600501546040516117d19493929190614a8d565b60405180910390a2505050565b6060600180546117ed90614157565b80601f016020809104026020016040519081016040528092919081815260200182805461181990614157565b80156118665780601f1061183b57610100808354040283529160200191611866565b820191906000526020600020905b81548152906001019060200180831161184957829003601f168201915b5050505050905090565b600c600082815260200190815260200160002060040160019054906101000a900460ff166118d3576040517f08c379a00000000000000000000000000000000000000000000000000000000081526004016118ca90614b1e565b60405180910390fd5b600c600082815260200190815260200160002060050154421061192b576040517f08c379a000000000000000000000000000000000000000000000000000000000815260040161192290614b8a565b60405180910390fd5b6000341161196e576040517f08c379a000000000000000000000000000000000000000000000000000000000815260040161196590614c1c565b60405180910390fd5b6000600e600083815260200190815260200160002060003373ffffffffffffffffffffffffffffffffffffffff1673ffffffffffffffffffffffffffffffffffffffff168152602001908152602001600020549050803411611a05576040517f08c379a00000000000000000000000000000000000000000000000000000000081526004016119fc90614cae565b60405180910390fd5b6000811115611a56573373ffffffffffffffffffffffffffffffffffffffff166108fc829081150290604051600060405180830381858888f19350505050158015611a54573d6000803e3d6000fd5b505b34600e600084815260200190815260200160002060003373ffffffffffffffffffffffffffffffffffffffff1673ffffffffffffffffffffffffffffffffffffffff16815260200190815260200160002081905550600c600083815260200190815260200160002060070154341115611b3a5733600c600084815260200190815260200160002060060160006101000a81548173ffffffffffffffffffffffffffffffffffffffff021916908373ffffffffffffffffffffffffffffffffffffffff16021790555034600c6000848152602001908152602001600020600701819055505b817f0e54eff26401bf69b81b26f60bd85ef47f5d85275c1d268d84f68d6897431c473334604051611b6c929190614cce565b60405180910390a25050565b6000600c60008381526020019081526020016000206003015490506000600c600084815260200190815260200160002060020160009054906101000a900473ffffffffffffffffffffffffffffffffffffffff169050813414611c10576040517f08c379a0000000000000000000000000000000000000000000000000000000008152600401611c0790614d69565b60405180910390fd5b6000600c600085815260200190815260200160002060040160006101000a81548160ff02191690831515021790555033600c600085815260200190815260200160002060020160006101000a81548173ffffffffffffffffffffffffffffffffffffffff021916908373ffffffffffffffffffffffffffffffffffffffff160217905550611c9e6008612c22565b611ca9303385612929565b611cb330846107ae565b600a60009054906101000a900473ffffffffffffffffffffffffffffffffffffffff1673ffffffffffffffffffffffffffffffffffffffff166108fc600b549081150290604051600060405180830381858888f19350505050158015611d1d573d6000803e3d6000fd5b508073ffffffffffffffffffffffffffffffffffffffff166108fc349081150290604051600060405180830381858888f19350505050158015611d64573d6000803e3d6000fd5b50505050565b611d7c611d756127d3565b8383612d45565b5050565b611d91611d8b6127d3565b83612894565b611dd0576040517f08c379a0000000000000000000000000000000000000000000000000000000008152600401611dc79061431e565b60405180910390fd5b611ddc84848484612eb1565b50505050565b600c600082815260200190815260200160002060040160019054906101000a900460ff16611e45576040517f08c379a0000000000000000000000000000000000000000000000000000000008152600401611e3c90614b1e565b60405180910390fd5b600c600082815260200190815260200160002060050154421015611e9e576040517f08c379a0000000000000000000000000000000000000000000000000000000008152600401611e9590614dd5565b60405180910390fd5b6000600c600083815260200190815260200160002060060160009054906101000a900473ffffffffffffffffffffffffffffffffffffffff1690506000600c60008481526020019081526020016000206007015490506000600c600085815260200190815260200160002060040160016101000a81548160ff021916908315150217905550600c600084815260200190815260200160002060020160009054906101000a900473ffffffffffffffffffffffffffffffffffffffff1673ffffffffffffffffffffffffffffffffffffffff166108fc829081150290604051600060405180830381858888f19350505050158015611f9f573d6000803e3d6000fd5b50611fab308385612929565b827f1569802994a84674f75331b5081a75eefaac9d79eb336ae1544ed0aae49cb938600c600086815260200190815260200160002060020160009054906101000a900473ffffffffffffffffffffffffffffffffffffffff16848460405161201593929190614e4a565b60405180910390a2505050565b3373ffffffffffffffffffffffffffffffffffffffff16600a60009054906101000a900473ffffffffffffffffffffffffffffffffffffffff1673ffffffffffffffffffffffffffffffffffffffff16146120b2576040517f08c379a00000000000000000000000000000000000000000000000000000000081526004016120a990614ef3565b60405180910390fd5b80600b8190555050565b6000600c600083815260200190815260200160002060060160009054906101000a900473ffffffffffffffffffffffffffffffffffffffff169050919050565b606061210782612788565b600060066000848152602001908152602001600020805461212790614157565b80601f016020809104026020016040519081016040528092919081815260200182805461215390614157565b80156121a05780601f10612175576101008083540402835291602001916121a0565b820191906000526020600020905b81548152906001019060200180831161218357829003601f168201915b5050505050905060006121b1612f0d565b905060008151036121c6578192505050612209565b6000825111156121fb5780826040516020016121e3929190614f4f565b60405160208183030381529060405292505050612209565b61220484612f24565b925050505b919050565b612216613686565b60006122226007612c38565b9050600c600082815260200190815260200160002060405180610120016040529081600082015481526020016001820160009054906101000a900473ffffffffffffffffffffffffffffffffffffffff1673ffffffffffffffffffffffffffffffffffffffff1673ffffffffffffffffffffffffffffffffffffffff1681526020016002820160009054906101000a900473ffffffffffffffffffffffffffffffffffffffff1673ffffffffffffffffffffffffffffffffffffffff1673ffffffffffffffffffffffffffffffffffffffff168152602001600382015481526020016004820160009054906101000a900460ff161515151581526020016004820160019054906101000a900460ff16151515158152602001600582015481526020016006820160009054906101000a900473ffffffffffffffffffffffffffffffffffffffff1673ffffffffffffffffffffffffffffffffffffffff1673ffffffffffffffffffffffffffffffffffffffff16815260200160078201548152505091505090565b606060006123b76007612c38565b905060008167ffffffffffffffff8111156123d5576123d4613a21565b5b60405190808252806020026020018201604052801561240e57816020015b6123fb613686565b8152602001906001900390816123f35790505b50905060008080600090505b848110156125f65760018161242f9190614754565b91506000600c600084815260200190815260200160002090508060405180610120016040529081600082015481526020016001820160009054906101000a900473ffffffffffffffffffffffffffffffffffffffff1673ffffffffffffffffffffffffffffffffffffffff1673ffffffffffffffffffffffffffffffffffffffff1681526020016002820160009054906101000a900473ffffffffffffffffffffffffffffffffffffffff1673ffffffffffffffffffffffffffffffffffffffff1673ffffffffffffffffffffffffffffffffffffffff168152602001600382015481526020016004820160009054906101000a900460ff161515151581526020016004820160019054906101000a900460ff16151515158152602001600582015481526020016006820160009054906101000a900473ffffffffffffffffffffffffffffffffffffffff1673ffffffffffffffffffffffffffffffffffffffff1673ffffffffffffffffffffffffffffffffffffffff1681526020016007820154815250508585815181106125c8576125c76147d0565b5b60200260200101819052506001846125e09190614754565b93505080806125ee90614788565b91505061241a565b508294505050505090565b6000600560008473ffffffffffffffffffffffffffffffffffffffff1673ffffffffffffffffffffffffffffffffffffffff16815260200190815260200160002060008373ffffffffffffffffffffffffffffffffffffffff1673ffffffffffffffffffffffffffffffffffffffff16815260200190815260200160002060009054906101000a900460ff16905092915050565b60006126a16007612c38565b905090565b60007f80ac58cd000000000000000000000000000000000000000000000000000000007bffffffffffffffffffffffffffffffffffffffffffffffffffffffff1916827bffffffffffffffffffffffffffffffffffffffffffffffffffffffff1916148061277157507f5b5e139f000000000000000000000000000000000000000000000000000000007bffffffffffffffffffffffffffffffffffffffffffffffffffffffff1916827bffffffffffffffffffffffffffffffffffffffffffffffffffffffff1916145b80612781575061278082612f8c565b5b9050919050565b61279181612ff6565b6127d0576040517f08c379a00000000000000000000000000000000000000000000000000000000081526004016127c79061484b565b60405180910390fd5b50565b600033905090565b816004600083815260200190815260200160002060006101000a81548173ffffffffffffffffffffffffffffffffffffffff021916908373ffffffffffffffffffffffffffffffffffffffff160217905550808273ffffffffffffffffffffffffffffffffffffffff1661284e836112c3565b73ffffffffffffffffffffffffffffffffffffffff167f8c5be1e5ebec7d5bd14f71427d1e84f3dd0314c0f7b2291e5b200ac8c7c3b92560405160405180910390a45050565b6000806128a0836112c3565b90508073ffffffffffffffffffffffffffffffffffffffff168473ffffffffffffffffffffffffffffffffffffffff1614806128e257506128e18185612601565b5b8061292057508373ffffffffffffffffffffffffffffffffffffffff1661290884610768565b73ffffffffffffffffffffffffffffffffffffffff16145b91505092915050565b8273ffffffffffffffffffffffffffffffffffffffff16612949826112c3565b73ffffffffffffffffffffffffffffffffffffffff161461299f576040517f08c379a000000000000000000000000000000000000000000000000000000000815260040161299690614fe5565b60405180910390fd5b600073ffffffffffffffffffffffffffffffffffffffff168273ffffffffffffffffffffffffffffffffffffffff1603612a0e576040517f08c379a0000000000000000000000000000000000000000000000000000000008152600401612a0590615077565b60405180910390fd5b612a1b8383836001613037565b8273ffffffffffffffffffffffffffffffffffffffff16612a3b826112c3565b73ffffffffffffffffffffffffffffffffffffffff1614612a91576040517f08c379a0000000000000000000000000000000000000000000000000000000008152600401612a8890614fe5565b60405180910390fd5b6004600082815260200190815260200160002060006101000a81549073ffffffffffffffffffffffffffffffffffffffff02191690556001600360008573ffffffffffffffffffffffffffffffffffffffff1673ffffffffffffffffffffffffffffffffffffffff168152602001908152602001600020600082825403925050819055506001600360008473ffffffffffffffffffffffffffffffffffffffff1673ffffffffffffffffffffffffffffffffffffffff16815260200190815260200160002060008282540192505081905550816002600083815260200190815260200160002060006101000a81548173ffffffffffffffffffffffffffffffffffffffff021916908373ffffffffffffffffffffffffffffffffffffffff160217905550808273ffffffffffffffffffffffffffffffffffffffff168473ffffffffffffffffffffffffffffffffffffffff167fddf252ad1be2c89b69c2b068fc378daa952ba7f163c4a11628f55a4df523b3ef60405160405180910390a4612c1d838383600161303d565b505050565b6001816000016000828254019250508190555050565b600081600001549050919050565b612c60828260405180602001604052806000815250613043565b5050565b612c6d82612ff6565b612cac576040517f08c379a0000000000000000000000000000000000000000000000000000000008152600401612ca390615109565b60405180910390fd5b80600660008481526020019081526020016000209081612ccc91906144ea565b507ff8e1a15aba9398e019f0b49df1a4fde98ee17ae345cb5f6b5e2c27f5033e8ce782604051612cfc9190613bd3565b60405180910390a15050565b60006002600083815260200190815260200160002060009054906101000a900473ffffffffffffffffffffffffffffffffffffffff169050919050565b8173ffffffffffffffffffffffffffffffffffffffff168373ffffffffffffffffffffffffffffffffffffffff1603612db3576040517f08c379a0000000000000000000000000000000000000000000000000000000008152600401612daa90615175565b60405180910390fd5b80600560008573ffffffffffffffffffffffffffffffffffffffff1673ffffffffffffffffffffffffffffffffffffffff16815260200190815260200160002060008473ffffffffffffffffffffffffffffffffffffffff1673ffffffffffffffffffffffffffffffffffffffff16815260200190815260200160002060006101000a81548160ff0219169083151502179055508173ffffffffffffffffffffffffffffffffffffffff168373ffffffffffffffffffffffffffffffffffffffff167f17307eab39ab6107e8899845ad3d59bd9653f200f220920489ca2b5937696c3183604051612ea491906137cc565b60405180910390a3505050565b612ebc848484612929565b612ec88484848461309e565b612f07576040517f08c379a0000000000000000000000000000000000000000000000000000000008152600401612efe90615207565b60405180910390fd5b50505050565b606060405180602001604052806000815250905090565b6060612f2f82612788565b6000612f39612f0d565b90506000815111612f595760405180602001604052806000815250612f84565b80612f6384613225565b604051602001612f74929190614f4f565b6040516020818303038152906040525b915050919050565b60007f01ffc9a7000000000000000000000000000000000000000000000000000000007bffffffffffffffffffffffffffffffffffffffffffffffffffffffff1916827bffffffffffffffffffffffffffffffffffffffffffffffffffffffff1916149050919050565b60008073ffffffffffffffffffffffffffffffffffffffff1661301883612d08565b73ffffffffffffffffffffffffffffffffffffffff1614159050919050565b50505050565b50505050565b61304d83836132f3565b61305a600084848461309e565b613099576040517f08c379a000000000000000000000000000000000000000000000000000000000815260040161309090615207565b60405180910390fd5b505050565b60006130bf8473ffffffffffffffffffffffffffffffffffffffff16613510565b15613218578373ffffffffffffffffffffffffffffffffffffffff1663150b7a026130e86127d3565b8786866040518563ffffffff1660e01b815260040161310a949392919061527c565b6020604051808303816000875af192505050801561314657506040513d601f19601f8201168201806040525081019061314391906152dd565b60015b6131c8573d8060008114613176576040519150601f19603f3d011682016040523d82523d6000602084013e61317b565b606091505b5060008151036131c0576040517f08c379a00000000000000000000000000000000000000000000000000000000081526004016131b790615207565b60405180910390fd5b805181602001fd5b63150b7a0260e01b7bffffffffffffffffffffffffffffffffffffffffffffffffffffffff1916817bffffffffffffffffffffffffffffffffffffffffffffffffffffffff19161491505061321d565b600190505b949350505050565b60606000600161323484613533565b01905060008167ffffffffffffffff81111561325357613252613a21565b5b6040519080825280601f01601f1916602001820160405280156132855781602001600182028036833780820191505090505b509050600082602001820190505b6001156132e8578080600190039150507f3031323334353637383961626364656600000000000000000000000000000000600a86061a8153600a85816132dc576132db61530a565b5b04945060008503613293575b819350505050919050565b600073ffffffffffffffffffffffffffffffffffffffff168273ffffffffffffffffffffffffffffffffffffffff1603613362576040517f08c379a000000000000000000000000000000000000000000000000000000000815260040161335990615385565b60405180910390fd5b61336b81612ff6565b156133ab576040517f08c379a00000000000000000000000000000000000000000000000000000000081526004016133a2906153f1565b60405180910390fd5b6133b9600083836001613037565b6133c281612ff6565b15613402576040517f08c379a00000000000000000000000000000000000000000000000000000000081526004016133f9906153f1565b60405180910390fd5b6001600360008473ffffffffffffffffffffffffffffffffffffffff1673ffffffffffffffffffffffffffffffffffffffff16815260200190815260200160002060008282540192505081905550816002600083815260200190815260200160002060006101000a81548173ffffffffffffffffffffffffffffffffffffffff021916908373ffffffffffffffffffffffffffffffffffffffff160217905550808273ffffffffffffffffffffffffffffffffffffffff16600073ffffffffffffffffffffffffffffffffffffffff167fddf252ad1be2c89b69c2b068fc378daa952ba7f163c4a11628f55a4df523b3ef60405160405180910390a461350c60008383600161303d565b5050565b6000808273ffffffffffffffffffffffffffffffffffffffff163b119050919050565b600080600090507a184f03e93ff9f4daa797ed6e38ed64bf6a1f0100000000000000008310613591577a184f03e93ff9f4daa797ed6e38ed64bf6a1f01000000000000000083816135875761358661530a565b5b0492506040810190505b6d04ee2d6d415b85acef810000000083106135ce576d04ee2d6d415b85acef810000000083816135c4576135c361530a565b5b0492506020810190505b662386f26fc1000083106135fd57662386f26fc1000083816135f3576135f261530a565b5b0492506010810190505b6305f5e1008310613626576305f5e100838161361c5761361b61530a565b5b0492506008810190505b612710831061364b5761271083816136415761364061530a565b5b0492506004810190505b6064831061366e57606483816136645761366361530a565b5b0492506002810190505b600a831061367d576001810190505b80915050919050565b60405180610120016040528060008152602001600073ffffffffffffffffffffffffffffffffffffffff168152602001600073ffffffffffffffffffffffffffffffffffffffff1681526020016000815260200160001515815260200160001515815260200160008152602001600073ffffffffffffffffffffffffffffffffffffffff168152602001600081525090565b6000604051905090565b600080fd5b600080fd5b60007fffffffff0000000000000000000000000000000000000000000000000000000082169050919050565b6137618161372c565b811461376c57600080fd5b50565b60008135905061377e81613758565b92915050565b60006020828403121561379a57613799613722565b5b60006137a88482850161376f565b91505092915050565b60008115159050919050565b6137c6816137b1565b82525050565b60006020820190506137e160008301846137bd565b92915050565b600081519050919050565b600082825260208201905092915050565b60005b83811015613821578082015181840152602081019050613806565b60008484015250505050565b6000601f19601f8301169050919050565b6000613849826137e7565b61385381856137f2565b9350613863818560208601613803565b61386c8161382d565b840191505092915050565b60006020820190508181036000830152613891818461383e565b905092915050565b6000819050919050565b6138ac81613899565b81146138b757600080fd5b50565b6000813590506138c9816138a3565b92915050565b6000602082840312156138e5576138e4613722565b5b60006138f3848285016138ba565b91505092915050565b600073ffffffffffffffffffffffffffffffffffffffff82169050919050565b6000613927826138fc565b9050919050565b6139378161391c565b82525050565b6000602082019050613952600083018461392e565b92915050565b6139618161391c565b811461396c57600080fd5b50565b60008135905061397e81613958565b92915050565b6000806040838503121561399b5761399a613722565b5b60006139a98582860161396f565b92505060206139ba858286016138ba565b9150509250929050565b6000806000606084860312156139dd576139dc613722565b5b60006139eb8682870161396f565b93505060206139fc8682870161396f565b9250506040613a0d868287016138ba565b9150509250925092565b600080fd5b600080fd5b7f4e487b7100000000000000000000000000000000000000000000000000000000600052604160045260246000fd5b613a598261382d565b810181811067ffffffffffffffff82111715613a7857613a77613a21565b5b80604052505050565b6000613a8b613718565b9050613a978282613a50565b919050565b600067ffffffffffffffff821115613ab757613ab6613a21565b5b613ac08261382d565b9050602081019050919050565b82818337600083830152505050565b6000613aef613aea84613a9c565b613a81565b905082815260208101848484011115613b0b57613b0a613a1c565b5b613b16848285613acd565b509392505050565b600082601f830112613b3357613b32613a17565b5b8135613b43848260208601613adc565b91505092915050565b60008060408385031215613b6357613b62613722565b5b600083013567ffffffffffffffff811115613b8157613b80613727565b5b613b8d85828601613b1e565b925050602083013567ffffffffffffffff811115613bae57613bad613727565b5b613bba85828601613b1e565b9150509250929050565b613bcd81613899565b82525050565b6000602082019050613be86000830184613bc4565b92915050565b60008060408385031215613c0557613c04613722565b5b6000613c13858286016138ba565b9250506020613c24858286016138ba565b9150509250929050565b600081519050919050565b600082825260208201905092915050565b6000819050602082019050919050565b613c6381613899565b82525050565b6000613c74826138fc565b9050919050565b613c8481613c69565b82525050565b613c93816137b1565b82525050565b613ca28161391c565b82525050565b61012082016000820151613cbf6000850182613c5a565b506020820151613cd26020850182613c7b565b506040820151613ce56040850182613c7b565b506060820151613cf86060850182613c5a565b506080820151613d0b6080850182613c8a565b5060a0820151613d1e60a0850182613c8a565b5060c0820151613d3160c0850182613c5a565b5060e0820151613d4460e0850182613c99565b50610100820151613d59610100850182613c5a565b50505050565b6000613d6b8383613ca8565b6101208301905092915050565b6000602082019050919050565b6000613d9082613c2e565b613d9a8185613c39565b9350613da583613c4a565b8060005b83811015613dd6578151613dbd8882613d5f565b9750613dc883613d78565b925050600181019050613da9565b5085935050505092915050565b60006020820190508181036000830152613dfd8184613d85565b905092915050565b600060208284031215613e1b57613e1a613722565b5b6000613e298482850161396f565b91505092915050565b61012082016000820151613e496000850182613c5a565b506020820151613e5c6020850182613c7b565b506040820151613e6f6040850182613c7b565b506060820151613e826060850182613c5a565b506080820151613e956080850182613c8a565b5060a0820151613ea860a0850182613c8a565b5060c0820151613ebb60c0850182613c5a565b5060e0820151613ece60e0850182613c99565b50610100820151613ee3610100850182613c5a565b50505050565b600061012082019050613eff6000830184613e32565b92915050565b600080600060608486031215613f1e57613f1d613722565b5b6000613f2c868287016138ba565b9350506020613f3d868287016138ba565b9250506040613f4e868287016138ba565b9150509250925092565b613f61816137b1565b8114613f6c57600080fd5b50565b600081359050613f7e81613f58565b92915050565b60008060408385031215613f9b57613f9a613722565b5b6000613fa98582860161396f565b9250506020613fba85828601613f6f565b9150509250929050565b600067ffffffffffffffff821115613fdf57613fde613a21565b5b613fe88261382d565b9050602081019050919050565b600061400861400384613fc4565b613a81565b90508281526020810184848401111561402457614023613a1c565b5b61402f848285613acd565b509392505050565b600082601f83011261404c5761404b613a17565b5b813561405c848260208601613ff5565b91505092915050565b6000806000806080858703121561407f5761407e613722565b5b600061408d8782880161396f565b945050602061409e8782880161396f565b93505060406140af878288016138ba565b925050606085013567ffffffffffffffff8111156140d0576140cf613727565b5b6140dc87828801614037565b91505092959194509250565b600080604083850312156140ff576140fe613722565b5b600061410d8582860161396f565b925050602061411e8582860161396f565b9150509250929050565b7f4e487b7100000000000000000000000000000000000000000000000000000000600052602260045260246000fd5b6000600282049050600182168061416f57607f821691505b60208210810361418257614181614128565b5b50919050565b7f4552433732313a20617070726f76616c20746f2063757272656e74206f776e6560008201527f7200000000000000000000000000000000000000000000000000000000000000602082015250565b60006141e46021836137f2565b91506141ef82614188565b604082019050919050565b60006020820190508181036000830152614213816141d7565b9050919050565b7f4552433732313a20617070726f76652063616c6c6572206973206e6f7420746f60008201527f6b656e206f776e6572206f7220617070726f76656420666f7220616c6c000000602082015250565b6000614276603d836137f2565b91506142818261421a565b604082019050919050565b600060208201905081810360008301526142a581614269565b9050919050565b7f4552433732313a2063616c6c6572206973206e6f7420746f6b656e206f776e6560008201527f72206f7220617070726f76656400000000000000000000000000000000000000602082015250565b6000614308602d836137f2565b9150614313826142ac565b604082019050919050565b60006020820190508181036000830152614337816142fb565b9050919050565b60008190508160005260206000209050919050565b60006020601f8301049050919050565b600082821b905092915050565b6000600883026143a07fffffffffffffffffffffffffffffffffffffffffffffffffffffffffffffffff82614363565b6143aa8683614363565b95508019841693508086168417925050509392505050565b6000819050919050565b60006143e76143e26143dd84613899565b6143c2565b613899565b9050919050565b6000819050919050565b614401836143cc565b61441561440d826143ee565b848454614370565b825550505050565b600090565b61442a61441d565b6144358184846143f8565b505050565b5b818110156144595761444e600082614422565b60018101905061443b565b5050565b601f82111561449e5761446f8161433e565b61447884614353565b81016020851015614487578190505b61449b61449385614353565b83018261443a565b50505b505050565b600082821c905092915050565b60006144c1600019846008026144a3565b1980831691505092915050565b60006144da83836144b0565b9150826002028217905092915050565b6144f3826137e7565b67ffffffffffffffff81111561450c5761450b613a21565b5b6145168254614157565b61452182828561445d565b600060209050601f8311600181146145545760008415614542578287015190505b61454c85826144ce565b8655506145b4565b601f1984166145628661433e565b60005b8281101561458a57848901518255600182019150602085019450602081019050614565565b868310156145a757848901516145a3601f8916826144b0565b8355505b6001600288020188555050505b505050505050565b7f486f706566756c6c792073656e64696e672074686520636f727265637420707260008201527f6963650000000000000000000000000000000000000000000000000000000000602082015250565b60006146186023836137f2565b9150614623826145bc565b604082019050919050565b600060208201905081810360008301526146478161460b565b9050919050565b7f4d616b652073757265207468652070726963652069736e2774206e656761746960008201527f7665000000000000000000000000000000000000000000000000000000000000602082015250565b60006146aa6022836137f2565b91506146b58261464e565b604082019050919050565b600060208201905081810360008301526146d98161469d565b9050919050565b60006080820190506146f5600083018761392e565b614702602083018661392e565b61470f6040830185613bc4565b61471c60608301846137bd565b95945050505050565b7f4e487b7100000000000000000000000000000000000000000000000000000000600052601160045260246000fd5b600061475f82613899565b915061476a83613899565b925082820190508082111561478257614781614725565b5b92915050565b600061479382613899565b91507fffffffffffffffffffffffffffffffffffffffffffffffffffffffffffffffff82036147c5576147c4614725565b5b600182019050919050565b7f4e487b7100000000000000000000000000000000000000000000000000000000600052603260045260246000fd5b7f4552433732313a20696e76616c696420746f6b656e2049440000000000000000600082015250565b60006148356018836137f2565b9150614840826147ff565b602082019050919050565b6000602082019050818103600083015261486481614828565b9050919050565b7f4552433732313a2061646472657373207a65726f206973206e6f74206120766160008201527f6c6964206f776e65720000000000000000000000000000000000000000000000602082015250565b60006148c76029836137f2565b91506148d28261486b565b604082019050919050565b600060208201905081810360008301526148f6816148ba565b9050919050565b7f4f6e6c7920746865206f776e65722063616e20737461727420616e206175637460008201527f696f6e0000000000000000000000000000000000000000000000000000000000602082015250565b60006149596023836137f2565b9150614964826148fd565b604082019050919050565b600060208201905081810360008301526149888161494c565b9050919050565b7f546f6b656e20697320616c7265616479206f6e2061756374696f6e0000000000600082015250565b60006149c5601b836137f2565b91506149d08261498f565b602082019050919050565b600060208201905081810360008301526149f4816149b8565b9050919050565b7f41756374696f6e206475726174696f6e206d757374206265206772656174657260008201527f207468616e207a65726f00000000000000000000000000000000000000000000602082015250565b6000614a57602a836137f2565b9150614a62826149fb565b604082019050919050565b60006020820190508181036000830152614a8681614a4a565b9050919050565b6000608082019050614aa2600083018761392e565b614aaf602083018661392e565b614abc6040830185613bc4565b614ac96060830184613bc4565b95945050505050565b7f546f6b656e206973206e6f74206f6e2061756374696f6e000000000000000000600082015250565b6000614b086017836137f2565b9150614b1382614ad2565b602082019050919050565b60006020820190508181036000830152614b3781614afb565b9050919050565b7f41756374696f6e2068617320656e646564000000000000000000000000000000600082015250565b6000614b746011836137f2565b9150614b7f82614b3e565b602082019050919050565b60006020820190508181036000830152614ba381614b67565b9050919050565b7f42696420616d6f756e74206d7573742062652067726561746572207468616e2060008201527f7a65726f00000000000000000000000000000000000000000000000000000000602082015250565b6000614c066024836137f2565b9150614c1182614baa565b604082019050919050565b60006020820190508181036000830152614c3581614bf9565b9050919050565b7f42696420616d6f756e74206d7573742062652067726561746572207468616e2060008201527f63757272656e7420626964000000000000000000000000000000000000000000602082015250565b6000614c98602b836137f2565b9150614ca382614c3c565b604082019050919050565b60006020820190508181036000830152614cc781614c8b565b9050919050565b6000604082019050614ce3600083018561392e565b614cf06020830184613bc4565b9392505050565b7f506c65617365207375626d6974207468652061736b696e67207072696365206960008201527f6e206f7264657220746f20636f6d706c65746520746865207075726368617365602082015250565b6000614d536040836137f2565b9150614d5e82614cf7565b604082019050919050565b60006020820190508181036000830152614d8281614d46565b9050919050565b7f41756374696f6e20686173206e6f7420656e6465642079657400000000000000600082015250565b6000614dbf6019836137f2565b9150614dca82614d89565b602082019050919050565b60006020820190508181036000830152614dee81614db2565b9050919050565b6000614e10614e0b614e06846138fc565b6143c2565b6138fc565b9050919050565b6000614e2282614df5565b9050919050565b6000614e3482614e17565b9050919050565b614e4481614e29565b82525050565b6000606082019050614e5f6000830186614e3b565b614e6c602083018561392e565b614e796040830184613bc4565b949350505050565b7f4f6e6c79206f776e65722063616e20757064617465206c697374696e6720707260008201527f6963650000000000000000000000000000000000000000000000000000000000602082015250565b6000614edd6023836137f2565b9150614ee882614e81565b604082019050919050565b60006020820190508181036000830152614f0c81614ed0565b9050919050565b600081905092915050565b6000614f29826137e7565b614f338185614f13565b9350614f43818560208601613803565b80840191505092915050565b6000614f5b8285614f1e565b9150614f678284614f1e565b91508190509392505050565b7f4552433732313a207472616e736665722066726f6d20696e636f72726563742060008201527f6f776e6572000000000000000000000000000000000000000000000000000000602082015250565b6000614fcf6025836137f2565b9150614fda82614f73565b604082019050919050565b60006020820190508181036000830152614ffe81614fc2565b9050919050565b7f4552433732313a207472616e7366657220746f20746865207a65726f2061646460008201527f7265737300000000000000000000000000000000000000000000000000000000602082015250565b60006150616024836137f2565b915061506c82615005565b604082019050919050565b6000602082019050818103600083015261509081615054565b9050919050565b7f45524337323155524953746f726167653a2055524920736574206f66206e6f6e60008201527f6578697374656e7420746f6b656e000000000000000000000000000000000000602082015250565b60006150f3602e836137f2565b91506150fe82615097565b604082019050919050565b60006020820190508181036000830152615122816150e6565b9050919050565b7f4552433732313a20617070726f766520746f2063616c6c657200000000000000600082015250565b600061515f6019836137f2565b915061516a82615129565b602082019050919050565b6000602082019050818103600083015261518e81615152565b9050919050565b7f4552433732313a207472616e7366657220746f206e6f6e20455243373231526560008201527f63656976657220696d706c656d656e7465720000000000000000000000000000602082015250565b60006151f16032836137f2565b91506151fc82615195565b604082019050919050565b60006020820190508181036000830152615220816151e4565b9050919050565b600081519050919050565b600082825260208201905092915050565b600061524e82615227565b6152588185615232565b9350615268818560208601613803565b6152718161382d565b840191505092915050565b6000608082019050615291600083018761392e565b61529e602083018661392e565b6152ab6040830185613bc4565b81810360608301526152bd8184615243565b905095945050505050565b6000815190506152d781613758565b92915050565b6000602082840312156152f3576152f2613722565b5b6000615301848285016152c8565b91505092915050565b7f4e487b7100000000000000000000000000000000000000000000000000000000600052601260045260246000fd5b7f4552433732313a206d696e7420746f20746865207a65726f2061646472657373600082015250565b600061536f6020836137f2565b915061537a82615339565b602082019050919050565b6000602082019050818103600083015261539e81615362565b9050919050565b7f4552433732313a20746f6b656e20616c7265616479206d696e74656400000000600082015250565b60006153db601c836137f2565b91506153e6826153a5565b602082019050919050565b6000602082019050818103600083015261540a816153ce565b905091905056fea2646970667358221220a2b18992a261ec31bf3836f40a31036960bf824a49155304326534bb289f4c2664736f6c63430008120033",
  "linkReferences": {},
  "deployedLinkReferences": {}
}